:10000000FBC0000016C1000014C1000012C10000B6
:1000100010C100000EC100000CC1000048C7000064
:1000200008C1000006C1000004C1000002C10000B8
:1000300000C10000FEC00000FCC00000FAC00000CB
:10004000F8C00000F6C000000C9475090C949F09DC
:10005000F0C00000EEC00000ECC00000EAC00000EC
:100060000C94A708E6C00000C208510951095109C3
:100070005109510951095109C20851095109510940
:100080005109510951095109E5085109510951090D
:100090005109510951095109D90851095109510909
:1000A0005109510951095109E508510951095109ED
:1000B0005109510951095109FC08510951095109C6
:1000C0005109510951095109510951095109510960
:1000D000510951095109510923095109510951097E
:1000E0005109510951095109D908510951095109B9
:1000F000510951095109510914095109510951096D
:1001000051095109510951093909C013E913C8139B
:10011000E913E913E913E913E913E913E913E913FF
:10012000E913E913E913E913E913E913E913E913EF
:10013000E913E913C413E913E913E913E913E91304
:10014000E913E913E913E913CC13C013E913C81336
:10015000E913E913E913E913E913E913E913E913BF
:10016000E913E913E913E913E913E913CC13E913CC
:10017000E913E913C413E913E913C0131314311479
:10018000191431143114311431143114311431145F
:100190003114311431143114311431143114311437
:1001A0003114311431141614311431143114311442
:1001B000311431143114311431141C14131431144A
:1001C000191431143114311431143114311431141F
:1001D00031143114311431143114311431141C140C
:1001E0003114311431141614311431141314000164
:1001F0000203040506070E0011241FBECFEFD8E04E
:10020000DEBFCDBF11E0A0E0B1E0E4EFF8E302C053
:1002100005900D92AE3CB107D9F727E0AEECB1E006
:1002200001C01D92AF30B207E1F70E945C0A0C9446
:10023000781CE6CE0E94890ADC01CB01805D9A48D9
:10024000AF4FBF4F8093CE019093CF01A093D001C9
:10025000B093D10108950F931F93CF93DF9300D0F4
:1002600000D000D0CDB7DEB70E94890A0091CE0140
:100270001091CF012091D0013091D1016017710709
:1002800082079307A0F10E94890ADC01CB01805DFF
:100290009A48AF4FBF4F8093CE019093CF01A09368
:1002A000D001B093D10186E390E00E94E40A8C0172
:1002B0000097E9F0AE014F5F5F4FBE016D5F7F4F6A
:1002C000CE0105960E94A20B89819A81F80193873D
:1002D00084878D819E81958786878B819C81978776
:1002E000808B86E08383B80181E00E94480C2696CB
:1002F0000FB6F894DEBF0FBECDBFDF91CF911F9137
:100300000F9108950CD3F7D07EC50895FC0120818C
:10031000293439F018F4213431F007C02F54223039
:1003200020F4C7C20895ABC0089582E00895FC018F
:100330001782168211861086138612868081893470
:1003400049F018F4813461F00EC08F3419F0803513
:1003500021F009C0CF01F8C20895CF018BC30895E1
:10036000CF01DAC0089583E00895FC01208129348B
:1003700039F018F4213431F008952F54223018F454
:10038000E2C30895F6C0089518D406C10895982FC1
:10039000977029F021E0220F9150E9F701C021E088
:1003A000869586958695662341F0E82FF0E0EC511E
:1003B000FE4F8081282B20830895E82FF0E0EC5138
:1003C000FE4F20958081282320830895EF92FF928D
:1003D0000F931F93CF93DF937B018A01FC01C281AE
:1003E000D38160E08C2FD3DF82E0F7018083DD27AB
:1003F000CC0FDD1FC550D94F8881F80180838981DA
:10040000818380E0DF91CF911F910F91FF90EF905A
:1004100008950F931F93CF93DF93FA01018110E0AA
:10042000102F00272081022BFC01C281D38160E0C4
:100430008C2FADDFDD27CC0FDD1FC550D94F1983C1
:10044000088380E0DF91CF911F910F910895DC0127
:100450001296EC918E2F877029F091E0990F8150C0
:10046000E9F701C091E0E695E695E695F0E0EC51FC
:10047000FE4F8081982381E009F480E00895FC011B
:100480002181293611F0263791F4FC018281938174
:100490008930910550F49927FC01E552FE4F81E027
:1004A00090819F3F29F480E0089582E0089582E0E2
:1004B0000895CF93DF931F92CDB7DEB782E0898393
:1004C00029ED31E0AE014F5F5F4F61E088E09FEFC3
:1004D0000E94CF148091D9019091DA01893E9D4FFD
:1004E00030F088EE9DEF9093DA018093D9010F9060
:1004F000DF91CF910895EBEDF1E0ABEFB6E084EE44
:1005000091E02FEF21931D921D92E817F907D1F783
:100510001092E401CECF0895FC018281938189304D
:10052000910518F59927DC01A552BE4F2C912F3F5C
:10053000F1F42181293631F0263711F421E003C08E
:100540002FEF01C022E0DC01A552BE4F2C9386EEB6
:1005500091E09783868389E092E09187808787E2A4
:1005600092E09387828780E0089582E0089582E098
:100570000895FC01828193818930910560F4992767
:10058000FC01E552FE4F20812F3F29F0FC01E5528E
:10059000FE4F2FEF20830895CF92DF92EF92FF92CC
:1005A000CF938091D7019091D801009711F5809158
:1005B000D601E82FF0E0E552FE4F60816F3F49F42D
:1005C0008F5F893019F08093D60185C01092D601D3
:1005D00082C090D481E090E09093D8018093D701BD
:1005E0001092D2011092D3011092D4011092D50131
:1005F00072C02091D9013091DA01A9014B5F5F4FA0
:100600008417950740F595D42091D7013091D801F2
:100610002F5F3F4F3093D8012093D701253031050C
:1006200008F459C0AA2797FDA095BA2F4091D2018E
:100630005091D3016091D4017091D501840F951F21
:10064000A61FB71F8093D2019093D301A093D4012A
:10065000B093D50140C02F5F3F4F40E050E0609124
:10066000D2017091D3018091D4019091D5010E9463
:10067000DA1B2093D2013093D3014093D4015093DD
:10068000D501C091D6016C2F70E0FB01EE0FFF1F6A
:10069000E550F94FC080D180EE24D7FCE094FE2CC9
:1006A0002C153D054E055F0551F0FB01EE0FFF1FB8
:1006B000E550F94F3183208361E08C2F68DE109282
:1006C000D8011092D701CF5FC93019F0C093D6017D
:1006D00002C01092D601CF91FF90EF90DF90CF90A3
:1006E0000895877099279C0121503109892B31F099
:1006F00081E0880F21503109E0F7089581E00895E5
:10070000CF93DF93EC01EDDFD695C795D695C795CE
:10071000D695C795C250C230A8F4D0E0FE01E75F7D
:10072000FE4F9081982381F4FE01E751FE4F9081A6
:10073000982361F4C551DE4F9881982381E039F404
:1007400080E005C082E003C082E001C081E0DF916B
:10075000CF910895DA0111966C91119770E0762F80
:1007600066272C91622BFC0121812E3611F46095B5
:100770007095DC011296ED91FC911397E95FFE4FA5
:10078000808143D480E00895CF93FC0182819381DE
:10079000FC01F695E795F695E795F695E795E25015
:1007A000E23010F0C2E001C0CE2F9BDFEC2FF0E072
:1007B000EB51FE4F9081982381E009F480E0CF91C6
:1007C00008950F931F93CF93DF93EC018A819B8150
:1007D000FA0110819C013695279536952795369517
:1007E00027952250223010F002E001C0022F79DF5D
:1007F000202F30E0982F9095F901EB51FE4F40816A
:100800004923408349814E3609F4109510FF07C0F3
:10081000F901E35FF84F9081892B808306C0F901CD
:10082000E35FF84F80819823908380E0DF91CF9140
:100830001F910F910895BF92CF92DF92EF92FF9296
:100840000F931F93CF93DF93EC016B017A018A81A1
:100850009B818C011695079516950795169507951A
:100860000250023008F002E010E0F801E35FF84FB8
:10087000B08037DFF801EB51FE4F982F9095208123
:100880009223908399819E3609F4B09491E0F60109
:1008900090838B2109F490E0F701908380E0DF9151
:1008A000CF911F910F91FF90EF90DF90CF90BF906D
:1008B0000895FC012081293411F02F3459F4FC01F2
:1008C00021812E3611F0203721F5FC0182819381A0
:1008D00017CF08952035F9F4FC0121812E3611F04F
:1008E0002037D9F4FC01828193818230910568F42C
:1008F000FC01E95FFE4F20812F3F49F0FC01EB5FD7
:10090000FE4F808190E0FCCE089582E0089582E061
:10091000089582E0089582E0089582E0089510929B
:10092000EB011092E9011092E7011092E50110929B
:100930000D071092EC011092EA011092E80110925A
:10094000E60110920E070895DF92EF92FF920F9347
:100950001F93CF93DF93EC010A811B81C801D0DE86
:1009600081117FC0C8019695879596958795969534
:1009700087958250823020F06894EE24E1F801C01F
:10098000E82EC801AEDEF82E0E2D10E0D82ED09441
:10099000F801EB51FE4F80818D21808388818F3457
:1009A00039F581EE93E09987888743E06F2D8E2D8E
:1009B000E0D2F801E551FE4F80818F298083898143
:1009C000803759F46F2D8E2D12D3F801E35FF84F65
:1009D0008081D822D08280E045C06F2D8E2DFAD242
:1009E000F801E35FF84F8081F82AF08280E03AC096
:1009F0002BE134E03F832E8321EE33E039872887D3
:100A000024EC33E03B872A87F801E751FE4F8081D1
:100A10008F2980838981803791F441E06F2D8E2D5D
:100A2000A8D2F801E951FE4F80818D218083F80121
:100A3000E35FF84F8081D822D08280E013C042E08B
:100A40006F2D8E2D96D2F801E951FE4F80818F29AE
:100A50008083F801E35FF84F8081F82AF08280E01C
:100A600001C082E0DF91CF911F910F91FF90EF9035
:100A7000DF900895EF92FF920F931F93CF93DF9330
:100A8000EC012A813B812230310508F050C0F90188
:100A9000E95FFE4FE0808FEFE81609F44AC0F901E4
:100AA000EB5FFE4F008110E0C8012ADE811143C0D8
:100AB000F801F695E795F695E795F695E795E250F6
:100AC000E23020F06894FF24F1F801C0FE2EC80146
:100AD00008DE182F44E0682F8F2D4BD28981803794
:100AE00071F460E070E08E2D90D2AF2DB0E0A35F86
:100AF000B84F9C91812F809589238C930BC06FEF09
:100B00007FEF8E2D82D2AF2DB0E0A35FB84F8C91D6
:100B1000812B8C93EF2DF0E0E551FE4F8081182B57
:100B200010838AEA93E09987888780E005C082E095
:100B300003C082E001C082E0DF91CF911F910F914D
:100B4000FF90EF9008951F93CF93DF93FC01C28134
:100B5000D3818081803559F4FE01E95FFE4F60E06A
:100B600070E0808152D2CB5FDE4FC881D0E0CE01F1
:100B7000969587959695879596958795825082301C
:100B800010F012E001C0182FCE01ABDD682FE12F6D
:100B9000F0E0982F9095DF01A551BE4F8C918923ED
:100BA0008C93E751FE4F80819823908340E0812F02
:100BB000E0D1DF91CF911F9108952F923F924F92F4
:100BC0005F926F927F928F929F92AF92BF92CF92DD
:100BD000DF92EF92FF920F931F93CF93DF930F2E2D
:100BE000F9EEAF2EF1E0BF2EF02D0F2EFBEECF2E43
:100BF000F1E0DF2EF02DCDE0D7E007EE11E00F2E73
:100C0000F5EEEF2EF1E0FF2EF02D712C68944424C8
:100C100043F8512C66246394D5019D905D01992081
:100C200051F1872DCBD18921242D352D962DF80119
:100C30001E01492F4921C9F0D8015C91682F652711
:100C4000642339F040955423682F6923562B508331
:100C50000CC05881682F6527462339F05427D101ED
:100C60005C93D7015C91452B4C93990F215031092E
:100C700021153105F1F6F60131906F01332071F045
:100C80004E016881632111F0872DA4D1D4018C918C
:100C90008095682F632111F0872DA9D17394219637
:100CA0000F5F1F4FBFEFEB1AFB0AE2E07E12B4CFDB
:100CB000DF91CF911F910F91FF90EF90DF90CF9038
:100CC000BF90AF909F908F907F906F905F904F906C
:100CD0003F902F900895CA01E091F301F091F40143
:100CE000309711F40E94371C45814C5FFB01408313
:100CF00050E06091F3017091F4016E5F7F4F0E94AC
:100D0000481C8091F3019091F401E0D41092F40119
:100D10001092F30180E00895FF920F931F93CF93F9
:100D2000DF93F62E8A0183E0861778F586E390E05C
:100D30004BD4EC01009759F14F2D50E0B8010296C9
:100D40000E94481C9B8193709B838CEF8F0D8C833A
:100D5000882311F091609B838D81882329F09B81EA
:100D600092609B83863218F48B81837021F4CE01CC
:100D7000ADD483E00FC0BE018DEE91E001D58111AD
:100D800008C0CE01A3D481E005C083E003C081E0A8
:100D900001C080E0DF91CF911F910F91FF900895E6
:100DA000CF93DF93E091F301F091F4013097A9F034
:100DB0008381C82FC07EF1F4D82FD07184FF0AC080
:100DC0008581811119C0CF0181D41092F401109254
:100DD000F30115C087D1CD2F12C08091F201882375
:100DE00069F08DEE91E0FFD49093F4018093F301CC
:100DF000C0E005C0C1E003C0C1E001C0C0E08C2F6D
:100E0000DF91CF91089581E056D1882329F1809117
:100E1000F3019091F401009729F058D41092F40155
:100E20001092F3010E949D14FC01009719F480E0D8
:100E300042C108958BE696E0978386838CE896E01E
:100E40009187808780ED96E09387828784E5808311
:100E500081E6818313821282089582E08093B0003C
:100E60001092B2009BE99093B30087BB809370000F
:100E700087E08093B100789408958091000190916B
:100E8000010180FF09C09695879524EB92279093E6
:100E900001018093000106C096958795909301010A
:100EA00080930001809100019091010108951F92AB
:100EB0000F920FB60F9211242F933F934F935F938E
:100EC0006F937F938F939F93AF93BF93EF93FF9312
:100ED00029D3FF91EF91BF91AF919F918F917F9116
:100EE0006F915F914F913F912F910F900FBE0F9097
:100EF0001F90189590917A00992344F0A4E6B0E0F1
:100F00009C919E7F9C9397E890937A00E82FF0E065
:100F1000E251FE4FE49180E4689FB00111246E2BF2
:100F2000606260937C00EAE7F0E080818064808307
:100F300008958091780090917900EAE7F0E02081AF
:100F4000206420839695879508958EBD0DB407FE85
:100F5000FDCF8EB50895E4E6F0E080818B7F80833D
:100F60002A9A84B18C6284B9249880E58CBD1DBC1A
:100F70000895E82FF0E0EE0FFF1FE55FFE4F0190B0
:100F8000F081E02DDF011197423021F078F04530FB
:100F900048F00CC08081862B808360958C916823FB
:100FA0006C9308958C91682B6C9308956095808163
:100FB000862380838C9168236C930895E82FF0E05A
:100FC000EE0FFF1FE55FFE4F0190F081E02D32979D
:100FD00080810895E82FF0E0EE0FFF1FE55FFE4FE0
:100FE0000190F081E02D8081682B60830895E82FC7
:100FF000F0E0EE0FFF1FE55FFE4F0190F081E02D66
:1010000060958081682360830895982F97708695F6
:101010008695869519F08130F9F0089584B5282FCA
:10102000207A911108C077BD672B19F0822F806854
:1010300009C0807207C078BD672B19F0822F8062CB
:1010400001C08078811103C014BC15BC0895836071
:1010500084BD84E085BD089580918000282F207A8A
:1010600091110BC07093890060938800672B11F079
:1010700020680DC0282F20720AC070938B006093E7
:101080008A00672B11F0206202C0282F20782111DE
:1010900005C0109280001092810008958FEF9FEF9D
:1010A000909387008093860022602093800089E1DE
:1010B000809381000895882369F0ECEBF0E080E8EC
:1010C000808388E48093B8008FEF8093BB0085E035
:1010D000808303C080E88093BC0086B185FB8827AD
:1010E00080F90895E091F301F091F401309711F443
:1010F0000E94371C8381982F987F19F41092F60173
:1011000015C09091F60191509093F60191110EC087
:1011100093819062938383FF0BC0ECEBF0E08081BE
:101120008B7E8083808184688083089583FD0EC0D8
:10113000359B0CC01092F601E091F301F091F4019F
:1011400083818860838385EA8093BC0008951F9221
:101150000F920FB60F9211242F933F938F939F936B
:10116000AF93BF93EF93FF938091B900887F90E096
:10117000FC013897E135F10508F093C0EC5CFF4FB6
:101180000C94F61B1092F501E091F301F091F4013B
:10119000838180FF05C08281880F8093BB0005C0DA
:1011A0008281880F81608093BB0085E88093BC00BA
:1011B0008FC0E091F301F091F40115828381806486
:1011C000838385E98093BC0083C0E091F301F091B3
:1011D000F40194818091F501891770F4E80FF11DF5
:1011E00086818093BB008091F5018F5F8093F5012C
:1011F00085E88093BC006CC0E091F301F091F401AC
:101200008091F501848383818E7F8383838181FD37
:1012100007C0158280E1838385E98093BC0058C0B4
:1012200085EA8093BC0054C0E091F301F091F40191
:101230008091F50191E0980F9093F5019091BB009A
:10124000E80FF11D9683E091F301F091F40185819F
:101250002091F50130E02F5F3F4F90E028173907CC
:1012600024F485EC8093BC0033C085E88093BC00F7
:101270002FC0E091F301F091F4019091F50181E02C
:10128000890F8093F5012091BB00DF01A90FB11DEB
:1012900016962C93858380E1838385E98093BC0037
:1012A00017C0ECEBF0E080818B7E808380818468C6
:1012B0008083E091F301F091F4018091F501848342
:1012C00081E085838091B9008683838180688383F0
:1012D000FF91EF91BF91AF919F918F913F912F918E
:1012E0000F900FBE0F901F9018951F920F920FB680
:1012F0000F9211242F938F939F93AF93BF93EF93EC
:10130000FF932091C600E091F701F091F80180A1D0
:101310008F5F8F7191A1981731F090A1DF01A90F14
:10132000B11D2C9380A3FF91EF91BF91AF919F913D
:101330008F912F910F900FBE0F901F9018951F92B5
:101340000F920FB60F9211242F933F938F939F9379
:10135000EF93FF93E091F701F091F80125A184A1AB
:10136000821307C014A2E1ECF0E080818F7D8083BE
:101370000BC082A193A131E0320F35A3FC01E20F33
:10138000F11D80818093C600FF91EF919F918F9115
:101390003F912F910F900FBE0F901F901895CF93F4
:1013A000C62F653010F00E94371C81110EC01092BC
:1013B000C1008BB183608BB9519A50988091F7012D
:1013C0009091F801892B71F402C00E94371C86E2CB
:1013D00090E0FAD09093F8018093F701892B11F4F3
:1013E0000E94371CE091F701F091F80110A211A2C0
:1013F00014A215A2EC2FF0E0EE0FFF1FE15FFE4FED
:1014000080819181E0ECF0E09583848388E9818399
:1014100086E08283CF910895E82FF0E0EE0FFF1F62
:10142000E950FE4F0190F081E02D81E094A19111EF
:1014300080E0089590E0880F991FFC01E950FE4F6D
:101440000190F081E02D64A321E025A353A342A3E2
:10145000FC01E75EFE4F0190F081E02DDA018C91F6
:1014600086838181806281830895E82FF0E0EE0F0A
:10147000FF1FE950FE4F0190F081E02D20A181E097
:1014800091A1291301C080E00895E82FF0E0EE0F4C
:10149000FF1FE950FE4F0190F081E02D80A191A146
:1014A000891741F0DF01A90FB11D8C919F5F9F71DA
:1014B00091A3089580E008955FD00E9436150E94A0
:1014C000371B0E94781929D5209A289A0E941A0160
:1014D00010920302C2DC80910302882351F08091B4
:1014E00003028150809303020E94761871D50E94F6
:1014F0002B010E946A1B009709F0FBD10E940C1A75
:10150000009749F36BD4E7CF9093030180930201D6
:1015100008956091FF017091000280910102909105
:10152000020208958091FF0190910002A0910102B2
:10153000B09102020196A11DB11D8093FF0190930D
:101540000002A0930102B0930202809103028F5F18
:10155000809303028091020180FF02C0289801C09D
:10156000289A809102019091030196958795909316
:101570000301809302010895E3E1F2E0F0930F028A
:10158000E0930E021092110210921002AAE0B2E053
:1015900011961C921E928FEF93E090930D02809310
:1015A0000C029093160280931502B183A0831092CF
:1015B000090210920802109207021092060210927D
:1015C00005021092040208950F931F93CF93DF93A7
:1015D0000FB6F8940F92009709F469C0AC014C5F04
:1015E0005F4F4F3F83E0580708F064C0E0910E0260
:1015F000F0910F02AEE0B2E022813381241735076B
:1016000040F4208131812115310519F0DF01F90104
:10161000F3CFC2E0EA30FC0709F44FC08D919C91F2
:1016200011970496208131812D933C93228133813F
:10163000241B350B2930310510F1BF01640F751FD4
:10164000DB0113963C932E93129753834283129699
:101650004D915C9113970EE012E0E801A881B981E9
:1016600012962D913C9113972417350710F48D0194
:10167000F4CFEB01B983A883D8016D937C9340919B
:1016800008025091090222813381240F351F3093C3
:10169000090220930802409104025091050242176A
:1016A000530768F4309305022093040208C080E0D9
:1016B00090E005C080E090E002C080E090E00F90F4
:1016C0000FBEDF91CF911F910F910895CF93DF93BC
:1016D0000097A9F1BC01645071090FB6F8940F92FC
:1016E000FC01349742815381AEE0B2E0ED91FC9170
:1016F0001197228133812417350710F4DF01F6CFCB
:10170000EC012497F983E8836D937C938091080220
:10171000909109022A813B81821B930B90930902CD
:1017200080930802209106023091070282179307E6
:1017300020F490930702809306020F900FBEDF9172
:10174000CF9108952091080230910902FC01318364
:1017500020838091040290910502FB019183808394
:101760008091060290910702FA0191838083309361
:101770000502209304023093070220930602089585
:10178000FC01009751F16115710549F10FB6F8940C
:101790000F92DB011D921C92A081B181109739F448
:1017A000718360837383628381E0858312C0848147
:1017B000882341F0258130E02F5F3F4F90E0821772
:1017C00093077CF06D937C937183608385818F5F39
:1017D00085830F900FBE81E0089580E0089580E03A
:1017E000089580E00895FC010097D9F00FB6F894B1
:1017F0000F92A281B381109779F08581882311F02F
:10180000815085838D919C91119793838283892B3D
:1018100019F41182108215820F900FBE8A2F9B2F10
:10182000089580E090E00895809116069091170643
:1018300001968F3F2FEF920729F090931706809320
:10184000160606C081E090E0909317068093160676
:1018500080911606909117060895CF92DF92EF922D
:10186000FF92CF93DF93EB01861B970B6C01E12C6A
:10187000F12C03DBDC01A70196010E940B1C8C0FED
:101880009D1FDF91CF91FF90EF90DF90CF90089553
:101890000F931F93CF93DF93EB01209729F1909142
:1018A0001506953019F0CB0111DF1EC0843008F009
:1018B00083E0082F10E000521109B6DF8CE08D8321
:1018C00081E08E83E6E1F6E08081918199878A87C5
:1018D0001F8308878B81895F8B838C83809112069D
:1018E0008A83CE010E94581BDF91CF911F910F91E7
:1018F0000895DF92EF92FF920F931F93CF93DF93A0
:10190000EC0191E02A8180911206281390E08D81EC
:101910008C3009F40EC198F4823009F485C030F49B
:10192000882329F1813009F455C04EC28A3009F468
:10193000B4C008F0C8C0853009F497C045C28831EA
:1019400009F48DC150F4833109F44CC1873109F495
:1019500074C18D3009F038C21CC1843409F4C9C186
:101960008E3F09F414C2833409F02EC298C18091CD
:1019700015068230C1F48A81809312068E8180938D
:10198000130681E08093140613E01093150664E6B5
:1019900070E088EC90E061DF909319068093180660
:1019A00010931A0611C2853009F00EC2992309F46A
:1019B0000BC280911406813009F006C210921C06F9
:1019C00010921B0610921E0610921D06CE010E9458
:1019D000FC19FCC180911506823009F0F5C12091F7
:1019E0001A0630E043E050E0421B530B84EF91E0D5
:1019F000489FB001499F700D589F700D11246C597C
:101A00007F4F44E050E0FA01E21BF30BAC01E49F8E
:101A1000C001E59F900DF49F900D11241EDF90935F
:101A2000190680931806D0C1809115068230A9F45A
:101A30008A81809312068E818093130613E010939F
:101A4000150664E670E088EC90E007DF90931906D5
:101A50008093180610931A06B7C1853009F0B4C1F7
:101A600010921C0610921B06AFC1992309F4ACC159
:101A700080911506833009F0A7C18E818111A4C120
:101A800084E08093150688EB9BE090931906809381
:101A9000180683E080931A0697C180911506853059
:101AA00009F092C1992309F48FC1CE0104960E94D6
:101AB0008B168A8787E08B838C838BE08D83CE01A6
:101AC0000E94581B83C1992309F47EC18091150699
:101AD000843009F079C180911F068A3009F074C101
:101AE000E0912006F09121069085888598136CC1BD
:101AF00091858985981368C1CF01E8DD86E18093DF
:101B00001F068A85811107C08E8190E0982F882753
:101B10002F81822B02C080E090E00E94671688EB44
:101B20009BE0909319068093180683E080931A0631
:101B30004BC180911506853009F046C1992309F4FF
:101B400043C1FE800F8110E0102F00278885082BED
:101B5000E984DA844C8147509E01255F3F4F6F2D09
:101B6000802F912F0E9437188A879F2D9076903270
:101B700009F02AC190E09E2927E02B832C832DE0D9
:101B80002D831E830F839887D986CE010E94581B10
:101B90001DC1992309F418C1809115068450823023
:101BA00008F012C180911F068C3009F00DC1E09140
:101BB0002006F091210691858885981305C19285AC
:101BC0008985981301C1CF0181DD86E180931F06CD
:101BD00088EB9BE0909319068093180683E080932E
:101BE0001A06F2C0992309F4EFC0809115068430DB
:101BF00009F0EAC080911F06823109F0E5C0E0914A
:101C00002006F0912106978189859813DDC0908583
:101C10008A859813D9C0CF0159DD86E180931F06CC
:101C200085E08093150688EB9BE0909319068093DE
:101C3000180683E080931A06C7C080911506853088
:101C400009F0C2C0992309F4BFC088EB9BE09093D0
:101C500019068093180683E080931A06B5C0809118
:101C60001506833068F481E08093140681E090E0EB
:101C7000909319068093180683E080931A06A4C0F7
:101C8000992309F4A1C01092150681E090E0909389
:101C900019068093180683E080931A0695C08091F8
:101CA0001506813009F090C020911A0630E043E01B
:101CB00050E0421B530B84EF91E0489FB001499FD5
:101CC000700D589F700D11246C597F4F44E050E007
:101CD000FA01E21BF30BAC01E49FC001E59F900DFC
:101CE000F49F900D1124B9DD909319068093180686
:101CF0006BC080911506813009F066C042E050E06B
:101D000066E176E0CE0107960E943B1C892B09F024
:101D10005BC00E94C31BFC0180818F3F19F015E05E
:101D2000F12C03C016E0FF24F3940E94031BFC0176
:101D300080818F3F21F41F5FFF2DF260FF2E8C8189
:101D4000811342C08E01075F1F4FF0FE0FC00E943B
:101D5000C31BFC01908189859817B1F1980141E07E
:101D600061E080E19FEF68D60F5F1F4FF1FE06C074
:101D7000980141E061E080E19FEF5ED61092150688
:101D800081E090E090931906809318061DC0809121
:101D900015068530C9F49923B9F09C818F81823072
:101DA00099F4953089F488858A834B8145504B831B
:101DB00050E0BE01675F7F4FCE0104960E94481C31
:101DC000CE010E94FC1902C0CE0180DCDF91CF91D0
:101DD0001F910F91FF90EF90DF9008950F931F9345
:101DE000CF93DF93EC0180911506853009F08EC00A
:101DF0008D818E3058F48A3008F065C08130B9F09A
:101E000080F1823071F1843089F180C0883109F429
:101E10005AC030F4823109F456C0863139F176C0A7
:101E2000833409F450C08E3F09F070C04CC08E81DD
:101E300090911406891711F0811168C0913039F41E
:101E400081E090E090931E0680931D065FC064E6DB
:101E500070E084EF91E001DD90931E0680931D06F3
:101E600055C010921E0610921D0650C086E390E0E9
:101E7000ABDB8C01009739F185E0F80184838EEFAC
:101E80008583168282E087838A81808788E08187C4
:101E90008CE0828781E683878FEF848788EC858753
:101EA0008AEB868787870E94F01AF801808B882347
:101EB00024F08FEF818B8EE001C08DE0F8018383E9
:101EC000C8010E94581B8B8125E0280F2333F0F4B2
:101ED0008C5F853050F0FE01E80FF11DDF01119796
:101EE0009C91948381508430B1F72B8385E08C835F
:101EF0008EEF8D831E8282E08F838A818887809116
:101F000012068A83CE010E94581B02C0CE01DEDB7E
:101F1000DF91CF911F910F910895CF93DF931F927F
:101F2000CDB7DEB781E0898322E136E0AE014F5FB5
:101F30005F4F61E084E19FEF32D50E94C31BFC013B
:101F400080818F3F21F481E08093150615C00E94A7
:101F5000031BFC0180818F3F21F481E080931506F3
:101F60000BC0809112068F3F21F482E0809315060A
:101F700003C083E0809315061092130681E08093DE
:101F8000140688EC90E0909319068093180683E07D
:101F900080931A06109217061092160680911F065B
:101FA000863139F08091200690912106009709F042
:101FB0008DDB86E180931F0610921C0610921B0693
:101FC00010921E0610921D060F90DF91CF9108957A
:101FD000EF92FF920F931F93CF93DF931F92CDB792
:101FE000DEB780911B0690911C060097C9F00197FF
:101FF00090931C0680931B06892B91F486E390E056
:10200000E3DAFC01009761F0128283E0838384832A
:1020100082E08583809113068683CF010E94581B3E
:1020200080911D0690911E060097C9F0019790932C
:102030001E0680931D06892B91F486E390E0C4DA96
:10204000FC01009761F0128283E08383848382E045
:102050008583809113068683CF010E94FC198091AD
:10206000180690911906009741F001979093190670
:1020700080931806892B09F051C280911506823091
:1020800009F409C138F4882309F481C0813009F4C6
:102090008AC044C2843009F4CFC108F453C18530EA
:1020A00009F03CC280911A06882351F02FEF280FC7
:1020B00020931A0690911F069C3009F04DC009C06C
:1020C00081E090E09093190680931806109215060F
:1020D00025C283E090E0821B9109BC01660F771F47
:1020E0009C01220F331F220F331F220F331F620F59
:1020F000731F24E1AC01249FC001259F900D112482
:10210000ACDB90931906809318060091200610917D
:102110002106D80116968C9180768032C9F486E328
:1021200090E052DA8C01009709F4F8C180E296E061
:10213000DC01ED91FC9126E3D80101900D922A95E6
:10214000E1F7DC01ED91FC91868180688683E3C133
:1021500086E180931F06DFC1963111F00E94371C83
:1021600086E390E031DA8C01009709F4D7C18091C1
:102170001206F801828382E08383848386E185836B
:1021800088EB9BE09093190680931806C4C10E94C7
:10219000371B0E947819C1DE8AE090E090931906FF
:1021A00080931806BBC140911A06442359F141504F
:1021B00040931A0650E083E090E0841B950B24EFD7
:1021C00031E0829FB001839F700D929F700D1124AA
:1021D0006C597F4F84E090E0841B950BAC01429FCB
:1021E000C001439F900D529F900D112436DB9093B8
:1021F00019068093180686E390E0E6D98C010097D3
:10220000A9F48CC180911406833038F48F5F8093D9
:10221000140683E080931A0681C188EB9BE09093BB
:102220001906809318061092150678C10E943D0782
:1022300090931706809316060E94C31BDC018C91B5
:102240008F3F31F481E0F8018187FF24F39401C0CE
:10225000F12C0E94031BDC018C918F3F31F4F801BB
:10226000EF0DF11D81E08187F394F11002C00E940F
:10227000371CF801128283E48583809114068683DB
:1022800080911606909117069087878385E08F0DC1
:102290008383848340C140911A06442359F14150FD
:1022A00040931A0650E083E090E0841B950B24EFE6
:1022B00031E0829FB001839F700D929F700D1124B9
:1022C0006C597F4F84E090E0841B950BAC01429FDA
:1022D000C001439F900D529F900D1124BEDA909340
:1022E00019068093180686E390E06ED98C0100975A
:1022F000A9F414C180911406833038F48F5F809361
:10230000140683E080931A0609C188EB9BE0909342
:102310001906809318061092150600C1DC0112966A
:102320001C92129783E013968C93139714968C93B8
:10233000149781E015968C93159780911406169644
:102340008C93E9C080911A06882399F0815080937C
:102350001A0664E670E084EF91E07FDA9093190644
:102360008093180686E390E02FD98C010097A1F4A2
:10237000D5C081E08093140683E080931A0664E65A
:1023800070E084EF91E069DA909319068093180663
:1023900082E080931506C2C080911206F801828304
:1023A00084E08583868381E0878310868EE1818740
:1023B0007801FAE0EF0EF11C87E189839701AE0105
:1023C0004F5F5F4F61E080E09FEFE9D2898182300B
:1023D00058F586E089839701AE014F5F5F4F61E05A
:1023E00080EC9FEFDCD28981E80EF11C9FE5D701DC
:1023F0009C938F5F89830E94C31BFC018081982F6F
:1024000092959F709A3010F0995C01C0905DD70151
:1024100011969C938F708A3010F0895C01C0805DAA
:10242000F701828389818E5F8A5FD80113968C932E
:10243000139714968C936FC080911A06882329F104
:102440002FEF280F20931A0683E090E0821B91095A
:10245000BC01660F771F9C01220F331F220F331F11
:10246000220F331F620F731F24E1FC012E9FC00156
:102470002F9F900D1124F1D990931906809318067F
:1024800080911F068A3051F40BC081E090E0909358
:102490001906809318061092150640C0823189F4FF
:1024A00086E390E091D88C010097C1F1E09120067D
:1024B000F091210686E3D80101900D928A95E1F70B
:1024C0002AC08C3031F50091200610912106D801E8
:1024D00016968C9180768032C1F486E390E074D8B1
:1024E0008C010097D9F080E296E0DC01ED91FC913F
:1024F00026E3D80101900D922A95E1F7DC01ED91D8
:10250000FC9186818068868306C086E180931F06E1
:1025100002C00E94371CC8010E94581B0F90DF9117
:10252000CF911F910F91FF90EF9008958091150624
:10253000089581E090911F06963109F080E008959A
:10254000CF92DF92EF92FF920F931F93CF93DF937F
:102550001F92CDB7DEB7F82EE62ED42EC52E2091D1
:102560001F06263111F00E94371C86E390E02CD81C
:102570008C01009709F44DC057D92CE0F21216C017
:10258000F801E682C782D086918782878BE28983B1
:102590009801255F3F4FAE014F5F5F4F6E2D8D2D30
:1025A0009C2DDFD48981895F89831EC0FAE0FF12E8
:1025B0000DC0F801C682D78290878187B801665F17
:1025C0007F4F8E2D21D38A5F89830EC0F2E1FF12E7
:1025D00009C0F801E6829783808783E2818786E0DD
:1025E000898302C00E94371C80911206F801828301
:1025F000898183838483F0921F06F58210932106DC
:1026000000932006109219061092180683E080931A
:102610001A060F90DF91CF911F910F91FF90EF90CD
:10262000DF90CF900895637039F52091280630919E
:1026300029062817390751F0E4E3F6E021E030E0FD
:10264000408151814817590781F402C020E030E0F1
:10265000C901880F991F280F391FC901880F991FB9
:10266000880F991F8C5D994F08952F5F3F4F3C96BF
:102670002031310529F728C0613049F5992354F5F7
:1026800081152FEF920751F0EBE3F1E021E030E00C
:10269000408151814817590781F402C020E030E0A1
:1026A000C901880F991F280F391FC901880F991F69
:1026B000880F991F855D9E4F08952F5F3F4F3C9671
:1026C0002930310529F709C080E090E0089580E0C5
:1026D00090E0089580E090E0089580E090E0089513
:1026E000FC0120812F3451F128F4213441F02934A8
:1026F00041F424C0203519F0233519F41FC082E0BD
:102700000895FC018181873579F028F4823451F0F5
:10271000843471F011C0813769F0873789F08436CD
:1027200059F404C081E0089582E0089584E8089592
:1027300084E0089588E8089580E0089580E0089591
:1027400082E80895AF92BF92CF92DF92EF92FF920C
:102750000F931F93CF93DF931F92CDB7DEB77B010B
:102760005A01FC01C280D380018110E0F801E254DB
:10277000F109E933F10568F5EB57FF4F0C94F61BAF
:1027800081E0FB0180831CC082E0FB01808318C0D4
:1027900084E0FB01808314C041E050E0B601CE012B
:1027A00001960E94511C9981F7018081981708F4C5
:1027B000892FF7018083882371F0FFEFCF1ADF0A9A
:1027C000F701408150E0B601C5010E94511C80E034
:1027D00003C083E001C080E00F90DF91CF911F9193
:1027E0000F91FF90EF90DF90CF90BF90AF90089542
:1027F000CF92DF92EF92FF920F931F93CF93DF93CD
:102800001F92CDB7DEB769836A01FC01E280F380D5
:10281000018110E0F801E254F109E933F10508F50E
:10282000E254FF4FE3C781E0898313C082E08983CC
:1028300010C084E089830DC041E050E0B701CE01B3
:1028400001960E94611C8981882369F0FFEFEF1ACD
:10285000FF0A498150E0B701C6010E94611C80E077
:1028600003C083E001C080E00F90DF91CF911F9102
:102870000F91FF90EF90DF90CF900895B9DF0E9405
:10288000590280E00895AF92BF92CF92DF92EF920B
:10289000FF920F931F93CF93DF9300D000D0CDB75B
:1028A000DEB78031D8F590E0FC01EE0FFF1FE80F96
:1028B000F91FEE0FFF1FEE0FFF1FEC5DF94F2FEF1B
:1028C0003FEF358324830CE110E07F0144E050E0CA
:1028D000B801CE010196E5D7CE2CDF2C44E050E0C4
:1028E000B701CE010196C7D7892B79F48FEF898381
:1028F0008A832FEF3FEF3C832B8344E050E0602F2F
:10290000712FCE010196DDD705C00C5F1F4F0C352E
:102910001105E1F68C2D9D2D0E94B5010F900F90B1
:102920000F900F90DF91CF911F910F91FF90EF903B
:10293000DF90CF90BF90AF9008958091280690913E
:102940002906019659F0E4E3F6E021E030E0C90100
:10295000408151814F3F5F4FC9F402C080E090E059
:102960009C01220F331FF901E80FF91FEE0FFF1F23
:10297000EE0FFF1FEC5DF94F17821682118610864D
:102980001386128615821482CF0108952F5F3F4F60
:102990003C9620313105D9F680E090E008950F9300
:1029A0001F93CF93DF93EA0189013DDE009719F46D
:1029B000188282E00FC0DC011696ED91FC9117970A
:1029C000309719F4188283E005C0A801BE0109956B
:1029D00081111882DF91CF911F910F9108950F936C
:1029E0001F93CF93DF93EB019A01FC016281738106
:1029F0006115710579F408810A3010F410E002C005
:102A00000AE010E0A80161E271E0C90141D7088342
:102A100080E00DC0615071096230710518F08FEFD0
:102A20009FEF02C080E19FEFAE0161E0B8DFDF9170
:102A3000CF911F910F9108951F93CF93DF93142F80
:102A4000E901F1DD009759F0DC011896ED91FC9158
:102A50001997309731F0AE01612F099503C082E0DC
:102A600001C083E0DF91CF911F910895CF92DF9253
:102A7000EF92FF920F931F93CF93DF9300D000D07C
:102A800000D0CDB7DEB781E089831A829E012E5F28
:102A90003F4FAE014F5F5F4F61E080E09FEF7FDF10
:102AA0008A818F3F39F0E8E2F6E028EE36E08FEFDA
:102AB0009FEF3FC01FEF1E839E012A5F3F4F41E003
:102AC00061E080E19FEFB8DF1D839E012B5F3F4FE8
:102AD00041E061E084E19FEFAFDF84ED9DE29C8304
:102AE0008B839E012D5F3F4F42E061E081E19FEFCC
:102AF000A3DF84E28A839E012E5F3F4F41E061E0C5
:102B000082E19FEF99DF80E590E09C838B839E01BB
:102B10002D5F3F4F42E061E088E09FEF8DDF1A823A
:102B20009E012E5F3F4F40E061E080E09FEF84DF39
:102B3000BACF918380833C96E217F307D1F780E107
:102B400090E09C838B8310922306109222060E94B1
:102B500082011C821B8260E070E000E010E007C090
:102B60000F5F1F4F3C960031110561F43EC0F80124
:102B7000EE0FFF1FE00FF11FEE0FFF1FEE0FFF1F05
:102B8000E85DF94F80819181019651F7C801880F66
:102B9000991F800F911F880F991F880F991FFC01A3
:102BA000EC5DF94F7F01660F771F660F771F645E3C
:102BB0007F4F44E050E0CF0174D6F701808181500F
:102BC0008E3F50F4C7010E949701811105C00F5F2D
:102BD0001F4FF701158214826B817C816F5F7F4FDD
:102BE0007C836B836031710510F226960FB6F894E2
:102BF000DEBF0FBECDBFDF91CF911F910F91FF9030
:102C0000EF90DF90CF900895FF920F931F93CF9393
:102C1000DF9390E09C01220F331FD901A80FB91F49
:102C2000AA0FBB1FAA0FBB1FAC5DB94F4C91FB0194
:102C30004083329611964C91DB0111964C93820F92
:102C4000931FDC01AA0FBB1FAA0FBB1FAC5DB94FBE
:102C500012964D915C911397D3E010E020E137E29A
:102C6000F12C01E042175307E8F0CA01B9018ED5F3
:102C7000C62F482F592FADECBCECBED59C01369524
:102C800027953695279536952795C11102C01123B2
:102C900029F0C05DC083DF5F3196102F2A303105E7
:102CA00008F70CC0ADECBCECA7D59C013695279578
:102CB0003695279536952795CF2DE9CF405D4083F2
:102CC0008D2FDF91CF911F910F91FF9008958F3F2E
:102CD0002FEF920799F02091220630912306F901F7
:102CE000EE0FFF1F2E0F3F1FF901EE0FFF1FEE0F1C
:102CF000FF1FEC5DF94F9583848303C0809122060A
:102D0000C2DD8091220690912306019690932306BE
:102D10008093220608958F929F92AF92BF92CF9296
:102D2000DF92EF92FF920F931F93CF93DF93CDB774
:102D3000DEB728970FB6F894DEBF0FBECDBF8C016B
:102D4000DC0116968C911697898317968C911797AC
:102D50008A836C91693020F1F801399618964C916C
:102D600080ED840F8A30F8F420E030E058E005C0B0
:102D7000419180ED840F8A30C0F4C901880F991FFA
:102D8000220F331F220F331F220F331F280F391F2B
:102D9000240F311D205331095F5F5613E9CF05C061
:102DA00020E030E002C020E030E03C832B83CE0105
:102DB00001960E948601823009F4B7C0F801828131
:102DC00090E0982F882723818C01022B0F2EF4E2AC
:102DD000CF2EF6E0DF2EF02DA12CB12CEE24EA94BC
:102DE000FE2CD60114968D909C901597BFEF8B16F4
:102DF0009B0629F4EFEFEE16FE0671F40CC044E0DA
:102E000050E0B601CE01019636D5892B81F0081528
:102E1000190511F48CC07501FFEFAF1ABF0A2CE041
:102E2000C20ED11C80E1A816B104D9F601C075010B
:102E3000AFEFEA16FA0609F47CC0F701EE0FFF1FA8
:102E4000EE0DFF1DEE0FFF1FEE0FFF1FEC5DF94FA4
:102E500084819581019609F050C00F3FEFEF1E0766
:102E600009F469C0C701880F991F8E0D9F1D880F37
:102E7000991F880F991F8C5D994F49815A816B81E9
:102E80007C81DC014D935D936D937C9313970E943D
:102E90009701811152C0F701EE0FFF1FEE0DFF1DCC
:102EA000EE0FFF1FEE0FFF1FEC5DF94F158304833C
:102EB0000CE110E044E050E0B801CE010596F1D4F9
:102EC00044E050E0BE016B5F7F4FCE010196D3D44A
:102ED000892B89F08D8181508E3F40F044E050E095
:102EE000602F712FCE010196ECD405C00C5F1F4FEF
:102EF0000C351105F9F680E021C00F3FBFEF1B072D
:102F000021F48E2DC0DC80E019C0F701EE0FFF1F09
:102F1000EE0EFF1EF701EE0FFF1FEE0FFF1FEC5D21
:102F2000F94F1583048380E009C083E007C082E085
:102F300005C081E003C082E001C082E028960FB6A0
:102F4000F894DEBF0FBECDBFDF91CF911F910F91DF
:102F5000FF90EF90DF90CF90BF90AF909F908F90B9
:102F60000895EF92FF920F931F93CF93DF937A010F
:102F7000E90159DB8C01009721F4D7011C9282E012
:102F80006FC0DC011696ED91FC911797309721F4F4
:102F9000F701108283E064C0AE01B7010995811189
:102FA0005BC0C8019DDB882324F58F778230E8F071
:102FB000282F30E0FE01E20FF31F3197908191112D
:102FC00008C02C0F3D1FF90132979081992354F4CA
:102FD0000CC09F3F51F42C0F3D1FF9013297908197
:102FE00099231CF48150813019F7D7018C9380E02C
:102FF00037C08823A1F1282F30E0FE01E20FF31F34
:1030000031979081992364F0823010F1911120C0A2
:103010002C0F3D1FF90132979081992334F418C089
:10302000C20FD31F18828F5F13C08150813081F08F
:10303000282F30E0FE01E20FF31F319790819111AC
:1030400007C02C0F3D1FF9013297908199236CF72F
:10305000F701808380E004C0D7011C9201C080E0AA
:10306000DF91CF911F910F91FF90EF900895FF9204
:103070000F931F93CF93DF93F42EE901D4DA8C01E1
:10308000009759F1DC0118968D919C911997892B25
:1030900031F1C80125DB682F6F77F61690F4FE0139
:1030A000EF0DF11D31978081880F880B91E09F0D06
:1030B000FE01EF0DF11D8083961711F0F92EF6CF6A
:1030C000F62E611101C06F2DD8011896ED91FC917B
:1030D0001997AE01C801099503C082E001C083E0E1
:1030E000DF91CF911F910F91FF900895CF93DF93C0
:1030F0000E94C4011BDA853009F066C08091220667
:1031000090912306409708F452C010922306109223
:1031100022064DC0F901EE0FFF1FE20FF31FEE0F65
:10312000FF1FEE0FFF1FEC5DF94F84819581019623
:10313000A9F1F901EE0FFF1FE20FF31FEE0FFF1FC2
:10314000EE0FFF1FEC5DF94F0284F385E02D309701
:1031500029F1C901880F991F280F391FC901880F4C
:10316000991F880F991F60E08C5D994F09958823FE
:10317000A9F08091220690912306FC01EE0FFF1F1B
:103180008E0F9F1FFC01EE0FFF1FEE0FFF1FEC5D68
:10319000F94F4481558160E28CE0D2D980912206BA
:1031A0009091230601969093230680932206C1D91D
:1031B000882309F47CC02091220630912306203117
:1031C000310508F4A7CF73C0843009F06CC080913A
:1031D0002206909123068031910570F5FC01EE0FD7
:1031E000FF1FE80FF91FEE0FFF1FEE0FFF1FEC5D33
:1031F000F94F248135812F3F3F4FC1F09AD9882361
:1032000009F455C06091220670912306FB01EE0F70
:10321000FF1FE60FF71FEE0FFF1FEE0FFF1FEC5D06
:10322000F94F448155818AE08BD941C00196909332
:103230002306809322063BC08F3F2FEF920751F168
:10324000803C9F4F30F480EC9FEF90932306809357
:1032500022066FD9882359F1C0912206D091230606
:1032600061E0CE01E0D9892B71F0AE0161E38CE021
:1032700067D98091220690912306019690932306A8
:103280008093220614C08FEF9FEF909323068093C4
:1032900022060DC04ED9882351F040E050E060E294
:1032A00082E14ED904C01092230610922206DF91CB
:1032B000CF9108952A981C99FECF0E94A50780E01F
:1032C0000E94A5072A9A0895CF93C62F2A981C9981
:1032D000FECF0E94A5078C2F0E94A5072A9ACF91A6
:1032E00008952A981C99FECF0E94A5072A9A08954E
:1032F000EF92FF920F931F93CF93DF9300D000D0F4
:10330000CDB7DEB702C00E94660B86EE96E00E9443
:10331000F30B0097C1F781E08C832CEE36E0AE0111
:103320004C5F5F4F61E080E19FEF39DB9E012F5FD3
:103330003F4FAE014C5F5F4F61E082E19FEF2FDBBB
:1033400082E08C839E012E5F3F4FAE014C5F5F4F4A
:1033500061E081E19FEF23DB0E94AB078AE18A9560
:10336000F1F700C02A98A5E3AA95F1F700002A9A80
:10337000B5EDBA95F1F700002A981C99FECF80E3CD
:103380000E94A5071C99FECF2A9A80EF93DF811136
:1033900004C081EF8FDF833008F469D208E911E0BF
:1033A0000F2EFEECEF2EF1E0FF2EF02DF8013197FD
:1033B000D8016C91808188DF0E5F1F4F0E151F05AD
:1033C000A9F76091EC0689E07FDF6B8184E07CDF08
:1033D0006A8185E079DF69818AE076DF60EC8EE3DF
:1033E00073DF0F900F900F900F90DF91CF911F918F
:1033F0000F91FF90EF900895CF93DF93EC01BC0104
:1034000086EE96E00E94C00B811103C0CE010E949F
:10341000660BDF91CF910895EF92FF920F931F9368
:10342000CF93DF9385EF46DF813009F068C088EFE6
:1034300041DF88230CF05AC0C0E11FEF8BEF3ADF69
:10344000D82FC150811721F0CC2371F0182FF6CF5F
:10345000CC2351F017501C3238F486E390E00E94E0
:10346000E40A8C01009739F48AE33BDF84E339DF17
:1034700080E090E0AEC00F2EFBEFEF2EF02DED0EB2
:10348000FC01E3822A981C99FECF8FEF0E94A507CA
:1034900080E00E94A50780E00E94A50780E00E94CE
:1034A000A507F8018283EE2051F0E8012496F12C63
:1034B00080E00E94A5078993F394EF10F9CF80E094
:1034C0000E94A5078093E50680E00E94A5072A9A3E
:1034D00088232CF0C8010E94660B00E010E08AE30C
:1034E00000DF84E3FEDE802F912F73C08BE3F9DED3
:1034F0008AE3F7DE84E3F5DE80E090E06AC08D3099
:1035000009F05FC08091EB06882309F45DC08091CB
:10351000E406882331F081508093E40680E090E057
:1035200058C088EFC7DE84FD13C080910401882352
:1035300079F0815080930401C091EC06C6950E94F9
:103540003D078F77C80FC093E40680E090E041C04C
:103550001092E40680E48093040186EE96E00E94D7
:10356000F30B7C01009799F1FC0103812A981C99C7
:10357000FECF8FE70E94A50782E0800F0E94A5077B
:10358000F70182810E94A5078091EC060E94A507A1
:10359000002371F0E7012496015010E00B5F1F4FEC
:1035A0000E0D1F1D89910E94A507C017D107D1F7E5
:1035B0002A9AC7010E94660B85E393DE80E090E0C3
:1035C00008C080E090E005C080E090E002C080E0AC
:1035D00090E0DF91CF911F910F91FF90EF900895B0
:1035E0008091E506882334F481958695865B8093E7
:1035F000E50605C086959AE4981B9093E5068091B0
:10360000E506819508958CEE96E0089580E00E948D
:103610000C0A882359F18091F2069091F3060097E5
:1036200031F00E94660B1092F3061092F206809120
:10363000FA068823D9F085EF96E00E94F30B909369
:10364000F3068093F206892B09F411D181E090E012
:103650000E94840AE091F206F091F306AF014D5FFB
:103660005F4F63816F5F80E00C941A0A0895CF93D7
:10367000DF931F92CDB7DEB702C00E94660B85EFC5
:1036800096E00E94F30B0097C1F781E0898324EF55
:1036900036E0AE014F5F5F4F61E080E19FEF7FD981
:1036A00064E080E00E94CF090F90DF91CF910895F0
:1036B000CF93DF93EC01BC0185EF96E00E94C00B35
:1036C000811104C0CE010E94660B01C09FDFDF9113
:1036D000CF910895CF939ADF41C080E00E94450AC0
:1036E000C82F1092F1069091F006911111C082300E
:1036F000A8F186E390E00E94E40A9093EF0680939D
:10370000EE06892B11F0C093F0061092ED0626C04C
:103710008091ED06823358F4E091EE06F091EF06C9
:1037200021E0280F2093ED06E80FF11DC48380915E
:10373000ED06981313C0E091EE06F091EF0680912C
:10374000F406828393831092F00681E090E00E9459
:10375000840A8091EE069091EF0613C080E00E94EB
:10376000350A8111BACF8091F10681508093F1061C
:10377000811105C01092F00680E090E002C080E068
:1037800090E0CF91089584EF96E00895AA1BBB1BAB
:1037900051E107C0AA1FBB1FA617B70710F0A61B51
:1037A000B70B881F991F5A95A9F780959095BC0172
:1037B000CD010895052E97FB16F400940FD057FD08
:1037C00005D033D007FC02D046F408C05095409590
:1037D000309521953F4F4F4F5F4F089590958095BD
:1037E000709561957F4F8F4F9F4F0895EE0FFF1F8C
:1037F0000590F491E02D0994A29FB001B39FC00100
:10380000A39F700D811D1124911DB29F700D811D0C
:103810001124911D0895F0DFA59F900DB49F900D88
:10382000A49F800D911D11240895A1E21A2EAA1BB8
:10383000BB1BFD010DC0AA1FBB1FEE1FFF1FA21760
:10384000B307E407F50720F0A21BB30BE40BF50B5D
:10385000661F771F881F991F1A9469F760957095E6
:10386000809590959B01AC01BD01CF01089581E049
:1038700090E0F8943DC0FB01DC0104C08D91019003
:10388000801921F441505040C8F7881B990B0895C6
:10389000FB01DC0102C001900D9241505040D8F76D
:1038A0000895DC01CB01FC01F999FECF06C0F2BD01
:1038B000E1BDF89A319600B40D9241505040B8F7EE
:1038C0000895DC01CB0102C02D9105D0415050403C
:1038D000D8F70895262FF999FECF1FBA92BD81BD62
:1038E00020BD0FB6F894FA9AF99A0FBE0196089582
:0438F000F894FFCF7A
:1038F4005EA1FFFF401D1E0100C00028002B009F99
:1039040001CF00670033001900C000000000000070
:10391400004131534331322E3330314573020000BC
:10392400FFA213F813000045571A0008FFA2133E24
:103934001400004542720010FFA213F81300004562
:1039440042730014FFA213F81300004557740011CA
:10395400FFA213F81300004542760012FFA213F8E9
:1039640013000046730000C0FFEF1400000000467F
:10397400610100C1FFEF140000000046610200C2B3
:10398400FFEF1400000000022E002E0347063D073F
:103994000608050B080D100EA70F6210CA1183123A
:1039A40093130014001533181819161B4320FB2316
:0E39B400E9242A2500261F2C812D352E09001E
:00000001FF
