:1000000040C100005BC1000059C1000057C10000A1
:1000100055C1000053C1000051C1000049C7000094
:100020004DC100004BC1000049C1000047C10000A4
:1000300045C1000043C1000041C100003FC10000B4
:100040003DC100003BC100000C9462090C948C0976
:1000500035C1000033C1000031C100002FC10000D4
:100060000C9494082BC10000AF083E093E093E09DC
:100070003E093E093E093E09AF083E093E093E09D8
:100080003E093E093E093E09D2083E093E093E09A5
:100090003E093E093E093E09C6083E093E093E09A1
:1000A0003E093E093E093E09D2083E093E093E0985
:1000B0003E093E093E093E09E9083E093E093E095E
:1000C0003E093E093E093E093E093E093E093E09F8
:1000D0003E093E093E093E0910093E093E093E0916
:1000E0003E093E093E093E09C6083E093E093E0951
:1000F0003E093E093E093E0901093E093E093E0905
:100100003E093E093E093E092609BB0BD80B020CED
:100110009B0D9B0D230C9B0D9B0D9B0D9B0D3B0C79
:10012000510C860CB60C9B0D9B0D9B0D9B0D9B0DD6
:10013000DF0C9B0D9B0D9B0D0A0D1C0D9B0D9B0D4C
:100140009B0D9B0D9B0D9B0D9B0D9B0D9B0D9B0D6F
:100150009B0D9B0D9B0D9B0D9B0D9B0D9B0D9B0D5F
:100160009B0D9B0D9B0D9B0D9B0D9B0D9B0D9B0D4F
:100170009B0D9B0D9B0D9B0D9B0D9B0D9B0D9B0D3F
:100180009B0D9B0D9B0D9B0D9B0D9B0D9B0D9B0D2F
:100190003C0D660DB911E011C111E011E011E01143
:1001A000E011E011E011E011E011E011E011E011C7
:1001B000E011E011E011E011E011E011E011BD11DA
:1001C000E011E011E011E011E011E011E011E011A7
:1001D000E011C511B911E011C111E011E011E011F8
:1001E000E011E011E011E011E011E011E011E01187
:1001F000E011E011E011C511E011E011E011BD11B5
:10020000E011E011B9110A1226121012261226125C
:10021000261226122612261226122612261226121E
:10022000261226122612261226122612261226120E
:100230000D12261226122612261226122612261217
:100240002612261213120A12261210122612261233
:1002500026122612261226122612261226122612DE
:1002600026122612261226121312261226122612E1
:100270000D12261226120A120001020304050607B7
:100280000E0011241FBECFEFD8E0DEBFCDBF11E0BE
:10029000A0E0B1E0E6E5F1E302C005900D92AA37D7
:1002A000B107D9F726E0AAE7B1E001C01D92AB3A49
:1002B000B207E1F70E94490A0C94A918A1CE0CD309
:1002C000F7D0A2C50895FC012081293439F018F433
:1002D000213431F007C02F54223020F4C7C20895D2
:1002E000ABC0089582E00895FC0117821682118642
:1002F0001086138612868081893449F018F481347F
:1003000061F00EC08F3419F0803521F009C0CF01A3
:1003100001C30895CF0195C30895CF01DAC00895B0
:1003200083E00895FC012081293439F018F4213448
:1003300031F008952F54223018F4EDC30895F6C01B
:10034000089523D406C10895982F977029F021E0CD
:10035000220F9150E9F701C021E086958695869598
:10036000662341F0E82FF0E0E457FE4F8081282B10
:1003700020830895E82FF0E0E457FE4F2095808118
:10038000282320830895EF92FF920F931F93CF931A
:10039000DF937B018A01FC01C281D38160E08C2F55
:1003A000D3DF82E0F7018083DD27CC0FDD1FCA5643
:1003B000D94F8881F80180838981818380E0DF9132
:1003C000CF911F910F91FF90EF9008950F931F937E
:1003D000CF93DF93FA01018110E0102F00272081D5
:1003E000022BFC01C281D38160E08C2FADDFDD27C1
:1003F000CC0FDD1FCA56D94F1983088380E0DF91E7
:10040000CF911F910F910895DC011296EC918E2FE0
:10041000877029F091E0990F8150E9F701C091E0D0
:10042000E695E695E695F0E0E457FE4F8081982347
:1004300081E009F480E00895FC012181293611F062
:10044000263791F4FC01828193818930910550F423
:100450009927FC01ED57FE4F81E090819F3F29F4E1
:1004600080E0089582E0089582E00895CF93DF93BD
:100470001F92CDB7DEB782E0898321E831E0AE017B
:100480004F5F5F4F61E088E09FEF0E94C412809150
:10049000810190918201893E9D4F30F088EE9DEF61
:1004A00090938201809381010F90DF91CF91089505
:1004B000E3E8F1E0A6E9B6E08CE891E02FEF2193C4
:1004C0001D921D92E817F907D1F710928C01CECF3B
:1004D0000895FC01828193818930910518F599274F
:1004E000DC01AD57BE4F2C912F3FF1F4218129360D
:1004F00031F0263711F421E003C02FEF01C022E0D4
:10050000DC01AD57BE4F2C9383EC91E0978386833B
:1005100086EE91E09187808784E092E093878287DE
:1005200080E0089582E0089582E00895FC018281D0
:1005300093818930910560F49927FC01ED57FE4FB6
:1005400020812F3F29F0FC01ED57FE4F2FEF208334
:100550000895CF92DF92EF92FF92CF9380917F0127
:1005600090918001009711F580917E01E82FF0E0D5
:10057000ED57FE4F60816F3F49F48F5F893019F06E
:1005800080937E0185C010927E0182C0B4D481E048
:1005900090E09093800180937F0110927A011092F5
:1005A0007B0110927C0110927D0172C0209181012B
:1005B00030918201A9014B5F5F4F8417950740F589
:1005C000B9D420917F01309180012F5F3F4F30934C
:1005D000800120937F012530310508F459C0AA27F6
:1005E00097FDA095BA2F40917A0150917B016091BF
:1005F0007C0170917D01840F951FA61FB71F80930A
:100600007A0190937B01A0937C01B0937D0140C05F
:100610002F5F3F4F40E050E060917A0170917B0185
:1006200080917C0190917D010E940B1820937A01AA
:1006300030937B0140937C0150937D01C0917E01FA
:100640006C2F70E0FB01EE0FFF1FEA56F94FC080E0
:10065000D180EE24D7FCE094FE2C2C153D054E05F0
:100660005F0551F0FB01EE0FFF1FEA56F94F318392
:10067000208361E08C2F68DE1092800110927F0150
:10068000CF5FC93019F0C0937E0102C010927E0185
:10069000CF91FF90EF90DF90CF90089587709927CA
:1006A0009C0121503109892B31F081E0880F2150C4
:1006B0003109E0F7089581E00895CF93DF93EC01CD
:1006C000EDDFD695C795D695C795D695C795C150F8
:1006D000C330A8F4D0E0FE01E45FFE4F9081982380
:1006E00081F4FE01ED56FE4F9081982361F4CA56C5
:1006F000DE4F9881982381E039F480E005C082E0E4
:1007000003C082E001C081E0DF91CF910895DA015A
:1007100011966C91119770E0762F66272C91622BC1
:10072000FC0121812E3611F460957095DC01129642
:10073000ED91FC911397E85FFE4F808153D480E0E8
:100740000895CF93FC0182819381FC01F695E79592
:10075000F695E795F695E795E150E33010F0C3E0A4
:1007600001C0CE2F9BDFEC2FF0E0E357FE4F9081CE
:10077000982381E009F480E0CF9108950F931F93AF
:10078000CF93DF93EC018A819B81FA0110819C0158
:100790003695279536952795369527952150233000
:1007A00010F003E001C0022F79DF202F30E0982FF6
:1007B0009095F901E357FE4F4081492340834981D9
:1007C0004E3609F4109510FF07C0F901E855F94FAE
:1007D0009081892B808306C0F901E855F94F80810B
:1007E0009823908380E0DF91CF911F910F9108951E
:1007F000BF92CF92DF92EF92FF920F931F93CF930E
:10080000DF93EC016B017A018A819B818C01169543
:10081000079516950795169507950150033008F032
:1008200003E010E0F801E855F94FB08037DFF80138
:10083000E357FE4F982F90952081922390839981C2
:100840009E3609F4B09491E0F60190838B2109F46F
:1008500090E0F701908380E0DF91CF911F910F919D
:10086000FF90EF90DF90CF90BF900895FC01208122
:10087000293411F02F3459F4FC0121812E3611F066
:10088000203721F5FC018281938117CF089520350F
:10089000F9F4FC0121812E3611F02037D9F4FC0146
:1008A000828193818430910568F4FC01E85FFE4FFA
:1008B00020812F3F49F0FC01EC5FFE4F808190E0EA
:1008C000FCCE089582E0089582E0089582E00895C4
:1008D00082E0089582E00895CF93DF9326E931E026
:1008E00083E991E0C0E9D1E0ADE8B1E068EA76E003
:1008F00040E0F90111929F01FC011192CF01199280
:100900001D92FB011192BF014F5F433091F7DF91C0
:10091000CF910895DF92EF92FF920F931F93CF93A1
:10092000DF93EC010A811B81C801C7DE811180C001
:10093000C801969587959695879596958795815048
:10094000833028F00F2EF3E0EF2EF02D01C0E82EBB
:10095000C801A4DEF82E0E2D10E0D82ED094F80198
:10096000E357FE4F80818D21808388818F3439F554
:100970008EEB93E09987888743E06F2D8E2DE6D22A
:10098000F801EA56FE4F80818F2980838981803764
:1009900059F46F2D8E2D18D3F801E855F94F808149
:1009A000D822D08280E045C06F2D8E2D00D3F80173
:1009B000E855F94F8081F82AF08280E03AC028EFAC
:1009C00033E03F832E832EEB33E03987288721EAFB
:1009D00033E03B872A87F801ED56FE4F80818F294F
:1009E00080838981803791F441E06F2D8E2DAED2C6
:1009F000F801E057FE4F80818D218083F801E85592
:100A0000F94F8081D822D08280E013C042E06F2D60
:100A10008E2D9CD2F801E057FE4F80818F29808374
:100A2000F801E855F94F8081F82AF08280E001C092
:100A300082E0DF91CF911F910F91FF90EF90DF90B7
:100A40000895EF92FF920F931F93CF93DF93EC01E2
:100A50002A813B812430310508F051C0F901E85F5B
:100A6000FE4FF0808FEFF81609F44BC0F901EC5FF0
:100A7000FE4F008110E0C80120DE811144C0F80162
:100A8000F695E795F695E795F695E795E150E3300D
:100A900028F00F2EF3E0EF2EF02D01C0EE2EC8014E
:100AA000FDDD182F44E0682F8E2D50D289818037CC
:100AB00071F460E070E08F2D95D2AE2DB0E0A855B6
:100AC000B94F9C91812F809589238C930BC06FEF38
:100AD0007FEF8F2D87D2AE2DB0E0A855B94F8C9106
:100AE000812B8C93EE2DF0E0EA56FE4F8081182B7F
:100AF000108387E893E09987888780E005C082E0CB
:100B000003C082E001C082E0DF91CF911F910F917D
:100B1000FF90EF9008951F93CF93DF93FC01C28164
:100B2000D3818081803559F4FE01E85FFE4F60E09B
:100B300070E0808157D2CC5FDE4FC881D0E0CE011B
:100B4000969587959695879596958795815083304C
:100B500010F013E001C0182FCE01A0DDE12FF0E06E
:100B6000982F9095DF01AA56BE4F2C9129232C93E4
:100B7000ED56FE4F20819223908340E0682F812F15
:100B8000E5D1DF91CF911F9108952F923F924F921F
:100B90005F926F927F928F929F92AF92BF92CF920D
:100BA000DF92EF92FF920F931F93CF93DF9300D0CA
:100BB00000D0CDB7DEB70F2EF3E98F2EF1E09F2ED8
:100BC000F02D0F2EF6E9AF2EF1E0BF2EF02D08EA42
:100BD00016E00F2EF0E9EF2EF1E0FF2EF02D0F2E94
:100BE000FDE8CF2EF1E0DF2EF02D0F2EF6E96F2E6F
:100BF000F1E07F2EF02D9C828B822B802818AB8118
:100C0000BC815D90BC83AB83552069F1822DC3D13B
:100C1000852128E030E091E0F7011A830983492F0C
:100C20004521D9F0D7015C91682F6527642339F0FD
:100C300040955423682F6923562B50830EC0D8014A
:100C40005C91682F6527462341F05427A981BA811A
:100C50005C93D6015C91452B4C93990F215031093F
:100C600021153105E1F6F50131905F01332079F06E
:100C70002801D8016C91632111F0822D98D1F201E5
:100C800080818095682F632111F0822D9DD10F5FA7
:100C90001F4FFFEFEF1AFF0A8FEFC81AD80AAB8178
:100CA000BC81A615B70509F0A8CF0F900F900F9043
:100CB0000F90DF91CF911F910F91FF90EF90DF90F8
:100CC000CF90BF90AF909F908F907F906F905F90EC
:100CD0004F903F902F900895CA01E0919F01F091AD
:100CE000A001309711F40E94681845814C5FFB0108
:100CF000408350E060919F017091A0016E5F7F4F33
:100D00000E94791880919F019091A00187D4109240
:100D1000A00110929F0180E00895FF920F931F930E
:100D2000CF93DF93F62E8A0183E0861778F586E36A
:100D300090E017D4EC01009759F14F2D50E0B80125
:100D400002960E9479189B8193709B838CEF8F0D84
:100D50008C83882311F091609B838D81882329F0F7
:100D60009B8192609B83863218F48B81837021F47F
:100D7000CE0154D483E00FC0BE0189E991E073D461
:100D8000811108C0CE014AD481E005C083E003C0D0
:100D900081E001C080E0DF91CF911F910F91FF9022
:100DA0000895CF93DF93E0919F01F091A0013097D8
:100DB000A9F08381C82FC07EF1F4D82FD07184FFB1
:100DC0000AC08581811119C0CF0128D41092A001D9
:100DD00010929F0115C073D1CD2F12C080919E013A
:100DE000882369F089E991E071D49093A001809300
:100DF0009F01C0E005C0C1E003C0C1E001C0C0E088
:100E00008C2FDF91CF91089581E042D1882329F181
:100E100080919F019091A001009729F0FFD310923B
:100E2000A00110929F010E949212FC01009719F4F8
:100E300080E02EC108958CE696E0978386838DE846
:100E400096E09187808781ED96E09387828784E59D
:100E5000808381E6818313821282089582E08093E9
:100E6000B0001092B2009BE99093B30087BB8093CF
:100E7000700087E08093B10078940895809100011C
:100E80009091010180FF09C09695879524EB9227E8
:100E9000909301018093000106C0969587959093E9
:100EA000010180930001809100019091010108955A
:100EB0001F920F920FB60F9211242F933F934F93CF
:100EC0005F936F937F938F939F93AF93BF93EF93B2
:100ED000FF9301D3FF91EF91BF91AF919F918F91BC
:100EE0007F916F915F914F913F912F910F900FBE26
:100EF0000F901F90189590917A00992344F0A4E6E2
:100F0000B0E09C919E7F9C9397E890937A00E82FA5
:100F1000F0E0E858FD4FE49180E4689FB0011124AF
:100F20006E2B606260937C00EAE7F0E08081806471
:100F3000808308958091780090917900EAE7F0E04D
:100F4000208120642083969587950895E82FF0E00E
:100F5000EE0FFF1FE15FFE4F0190F081E02DDF01FA
:100F60001197423021F078F0453048F00CC0808174
:100F7000862B808360958C9168236C9308958C9167
:100F8000682B6C93089560958081862380838C9173
:100F900068236C930895E82FF0E0EE0FFF1FE15FE8
:100FA000FE4F0190F081E02D329780810895E82F67
:100FB000F0E0EE0FFF1FE15FFE4F0190F081E02DAA
:100FC0008081682B60830895E82FF0E0EE0FFF1F0B
:100FD000E15FFE4F0190F081E02D609580816823F4
:100FE00060830895982F977086958695869519F059
:100FF0008130F9F0089584B5282F207A911108C026
:1010000077BD672B19F0822F806809C0807207C0F6
:1010100078BD672B19F0822F806201C08078811122
:1010200003C014BC15BC0895836084BD84E085BDF5
:10103000089580918000282F207A91110BC0709321
:10104000890060938800672B11F020680DC0282F5D
:1010500020720AC070938B0060938A00672B11F096
:10106000206202C0282F2078211105C01092800034
:101070001092810008958FEF9FEF909387008093E7
:10108000860022602093800089E18093810008958A
:10109000882369F0ECEBF0E080E8808388E48093BB
:1010A000B8008FEF8093BB0085E0808303C080E8A9
:1010B0008093BC0086B185FB882780F90895E09174
:1010C0009F01F091A001309711F40E94681883816C
:1010D000982F987F19F41092A20115C09091A20147
:1010E00091509093A20191110EC0938190629383CD
:1010F00083FF0BC0ECEBF0E080818B7E80838081EE
:1011000084688083089583FD0EC0359B0CC01092C7
:10111000A201E0919F01F091A00183818860838307
:1011200085EA8093BC0008951F920F920FB60F922C
:1011300011242F933F938F939F93AF93BF93EF937C
:10114000FF938091B900887F90E0FC013897E135EA
:10115000F10508F093C0EC5CFF4F0C942718109237
:10116000A101E0919F01F091A001838180FF05C062
:101170008281880F8093BB0005C08281880F8160C7
:101180008093BB0085E88093BC008FC0E0919F01F5
:10119000F091A001158283818064838385E9809327
:1011A000BC0083C0E0919F01F091A00194818091E7
:1011B000A101891770F4E80FF11D86818093BB00AF
:1011C0008091A1018F5F8093A10185E88093BC008D
:1011D0006CC0E0919F01F091A0018091A1018483F6
:1011E00083818E7F8383838181FD07C0158280E1A7
:1011F000838385E98093BC0058C085EA8093BC0056
:1012000054C0E0919F01F091A0018091A10191E073
:10121000980F9093A1019091BB00E80FF11D968368
:10122000E0919F01F091A00185812091A10130E022
:101230002F5F3F4F90E02817390724F485EC809307
:10124000BC0033C085E88093BC002FC0E0919F01B3
:10125000F091A0019091A10181E0890F8093A101FB
:101260002091BB00DF01A90FB11D16962C93858339
:1012700080E1838385E98093BC0017C0ECEBF0E04C
:1012800080818B7E8083808184688083E0919F0150
:10129000F091A0018091A101848381E085838091F8
:1012A000B9008683838180688383FF91EF91BF912A
:1012B000AF919F918F913F912F910F900FBE0F9003
:1012C0001F9018951F920F920FB60F9211242F9313
:1012D0008F939F93AF93BF93EF93FF932091C6009B
:1012E000E091A301F091A40180A18F5F8F7191A182
:1012F000981731F090A1DF01A90FB11D2C9380A3A5
:10130000FF91EF91BF91AF919F918F912F910F908E
:101310000FBE0F901F9018951F920F920FB60F924D
:1013200011242F933F938F939F93EF93FF93E0911B
:10133000A301F091A40125A184A1821307C014A2E6
:10134000E1ECF0E080818F7D80830BC082A193A1CE
:1013500031E0320F35A3FC01E20FF11D8081809353
:10136000C600FF91EF919F918F913F912F910F9028
:101370000FBE0F901F901895CF93C62F653010F0B9
:101380000E94681881110EC01092C1008BB1836059
:101390008BB9519A50988091A3019091A401892B07
:1013A00071F402C00E94681886E290E0DAD090934F
:1013B000A4018093A301892B11F40E946818E09185
:1013C000A301F091A40110A211A214A215A2EC2F66
:1013D000F0E0EE0FFF1FEB5EFE4F80819181E0ECAD
:1013E000F0E09583848388E9818386E08283CF91CE
:1013F0000895E82FF0E0EE0FFF1FED55FE4F01902E
:10140000F081E02D81E094A1911180E0089590E0B9
:10141000880F991FFC01ED55FE4F0190F081E02DE2
:1014200064A321E025A353A342A3FC01E15EFE4F88
:101430000190F081E02DDA018C91868381818062B8
:1014400081830895E82FF0E0EE0FFF1FED55FE4F6A
:101450000190F081E02D20A181E091A1291301C02C
:1014600080E00895E82FF0E0EE0FFF1FED55FE4FEE
:101470000190F081E02D80A191A1891741F0DF0159
:10148000A90FB11D8C919F5F9F7191A3089580E07A
:1014900008954BD00E9429130E94681756D3209AB2
:1014A000289A1092AF01DADC8091AF01882341F0D5
:1014B0008091AF0181508093AF010E94531692D367
:1014C0000E949B17009781F33DD1EECF90930301CB
:1014D0008093020108958091AB019091AC01A0919D
:1014E000AD01B091AE010196A11DB11D8093AB017C
:1014F0009093AC01A093AD01B093AE018091AF0188
:101500008F5F8093AF018091020180FF02C0289815
:1015100001C0289A809102019091030196958795C8
:1015200090930301809302010895E9EBF1E0F093B9
:10153000B501E093B4011092B7011092B601A0EB8F
:10154000B1E011961C921E928FEF93E09093B3013D
:101550008093B2019093BC018093BB01B183A083BF
:101560000895CF93DF930FB6F8940F92009709F484
:1015700048C0AC014C5F5F4F4F3F83E0580708F015
:1015800043C0E091B401F091B501A4EBB1E0228138
:1015900033812417350740F420813181211531052D
:1015A00019F0DF01F901F3CF81E0E03BF80779F1B1
:1015B0008D919C9111970496208131812D933C93BC
:1015C00022813381241B350B2930310510F1EF01C5
:1015D000C40FD51F3B832A83538342834A815B8197
:1015E000A4EBB1E0ED91FC91119722813381241796
:1015F000350710F4DF01F6CFF983E883CD93DC9350
:1016000008C080E090E005C080E090E002C080E08B
:1016100090E00F900FBEDF91CF910895CF93DF93AD
:101620000097F1F0BC01645071090FB6F8940F9265
:10163000FC01349742815381A4EBB1E0ED91FC9120
:101640001197228133812417350710F4DF01F6CF7B
:10165000EC012497F983E8836D937C930F900FBE80
:10166000DF91CF910895FC01009751F1611571054B
:1016700049F10FB6F8940F92DB011D921C92A081E4
:10168000B181109739F4718360837383628381E041
:10169000858312C08481882341F0258130E02F5F4B
:1016A0003F4F90E0821793077CF06D937C9371839A
:1016B000608385818F5F85830F900FBE81E00895E1
:1016C00080E0089580E0089580E00895FC0100978F
:1016D000D9F00FB6F8940F92A281B381109779F0E8
:1016E0008581882311F0815085838D919C9111977C
:1016F00093838283892B19F41182108215820F90B3
:101700000FBE8A2F9B2F089580E090E00895CF921E
:10171000DF92EF92FF92CF93DF93EB01861B970B43
:101720006C01E12CF12CAADBDC01A70196010E94DF
:101730003C188C0F9D1FDF91CF91FF90EF90DF90B1
:10174000CF900895DF92EF92FF920F931F93CF9364
:10175000DF93EC0181E02A819091B805291380E0A4
:101760004D8150E04534510508F0E5C1FA01EB57D1
:10177000FF4F0C9427188091BB05823009F0DBC124
:101780008A818093B8058E818093B90581E080932A
:10179000BA0513E01093BB0564E670E088EC90E0B6
:1017A000B6DF9093BF058093BE051093C005C3C1FB
:1017B0008091BB05823009F0BEC12091C00530E0A8
:1017C00043E050E0421B530B84EF91E0489FB0018F
:1017D000499F700D589F700D11246C597F4F44E044
:1017E00050E0FA01E21BF30BAC01E49FC001E59F5E
:1017F000900DF49F900D11248ADF9093BF05809384
:10180000BE0599C18091BB058230A9F48A8180937D
:10181000B8058E818093B90513E01093BB0564E68B
:1018200070E088EC90E073DF9093BF058093BE0575
:101830001093C00580C1853009F07DC11092C205AA
:101840001092C10578C1882309F475C18091BB0548
:10185000833009F070C18E8181116DC184E0809365
:10186000BB0588EB9BE09093BF058093BE0583E0AA
:101870008093C00560C19091BB05953009F05BC1B4
:10188000882309F458C1CE0104960E9468148A87FF
:1018900087E08B838C838BE08D83CE010E94891738
:1018A0004CC1882309F447C18091BB05843009F0FD
:1018B00042C18091C3058A3009F03DC1E091C40561
:1018C000F091C50590858885981335C191858985E6
:1018D000981331C1CF01A2DE86E18093C3058A85CA
:1018E000811107C08E8190E0982F88272F81822B4D
:1018F00002C080E090E0C8D788EB9BE09093BF05E2
:101900008093BE0583E08093C00515C19091BB050F
:10191000953009F010C1882309F40DC1FE800F81B4
:1019200010E0102F00278885082BE984DA844C8189
:1019300047509E01255F3F4F6F2D802F912F0E94B2
:1019400014168A879F2D9076903209F0F4C090E0AB
:101950009E2927E02B832C832DE02D831E830F836C
:101960009887D986CE010E948917E7C0882309F499
:10197000E2C08091BB058450823008F0DCC08091C9
:10198000C3058C3009F0D7C0E091C405F091C505BE
:10199000918588859813CFC0928589859813CBC08F
:1019A000CF013CDE86E18093C30588EB9BE09093FA
:1019B000BF058093BE0583E08093C005BCC088232B
:1019C00009F4B9C08091BB05843009F0B4C080919E
:1019D000C305823109F0AFC0E091C405F091C5059F
:1019E000978189859813A7C090858A859813A3C08D
:1019F000CF0114DE86E18093C30585E08093BB05AB
:101A000088EB9BE09093BF058093BE0583E08093B5
:101A1000C00591C09091BB05953009F08CC088231A
:101A200009F489C088EB9BE09093BF058093BE05C5
:101A300083E08093C0057FC09091BB05933068F42C
:101A400081E08093BA0581E090E09093BF05809398
:101A5000BE0583E08093C0056EC0882309F46BC087
:101A60001092BB0581E090E09093BF058093BE0586
:101A700083E08093C0055FC08091BB05813009F091
:101A80005AC02091C00530E043E050E0421B530BA8
:101A900084EF91E0489FB001499F700D589F700DF1
:101AA00011246C597F4F44E050E0FA01E21BF30B24
:101AB000AC01E49FC001E59F900DF49F900D1124AF
:101AC00026DE9093BF058093BE0535C08091BB058F
:101AD000813089F542E050E06CEB75E0CE0107966D
:101AE0000E946C18892B39F50E94F417FC01808143
:101AF0008F3F19F085E020E002C086E021E09C8164
:101B0000981319C0217079F00E94F417FC0190819C
:101B10008985981781F09E01275F3F4F41E061E082
:101B200080E19FEF7CD51092BB0581E090E090931F
:101B3000BF058093BE05CE0171DDDF91CF911F916E
:101B40000F91FF90EF90DF900895CF93DF931F9256
:101B5000CDB7DEB781E0898328EB35E0AE014F5F7A
:101B60005F4F61E084E19FEF0FD50E94F417FC0105
:101B700080818F3F21F481E08093BB050BC0809171
:101B8000B8058F3F21F482E08093BB0503C083E05A
:101B90008093BB051092B90581E08093BA0588EC6B
:101BA00090E09093BF058093BE0583E08093C005CD
:101BB0001092BD051092BC058091C305863139F0A5
:101BC0008091C4059091C505009709F027DD86E155
:101BD0008093C3051092C2051092C1050F90DF914A
:101BE000CF910895EF92FF920F931F93CF93DF93BE
:101BF0001F92CDB7DEB78091C1059091C2050097C5
:101C0000C9F001979093C2058093C105892B91F487
:101C100086E390E0A6DCFC01009761F0128283E08D
:101C20008383848382E085838091B9058683CF0195
:101C30000E9489178091BE059091BF05009741F0E1
:101C400001979093BF058093BE05892B09F03BC295
:101C50008091BB05823009F4F1C038F4882309F47F
:101C600081C0813009F488C02EC2843009F4B7C124
:101C700008F43BC1853009F026C28091C005882355
:101C800051F02FEF280F2093C0059091C3059C3091
:101C900009F04DC009C081E090E09093BF058093AA
:101CA000BE051092BB050FC283E090E0821B910934
:101CB000BC01660F771F9C01220F331F220F331FB9
:101CC000220F331F620F731F24E1AC01249FC00158
:101CD000259F900D11241BDD9093BF058093BE05B9
:101CE0000091C4051091C505D80116968C91807697
:101CF0008032C9F486E390E034DC8C01009709F46B
:101D0000E2C184EC95E0DC01ED91FC9126E3D80181
:101D100001900D922A95E1F7DC01ED91FC9186810D
:101D200080688683CBC186E18093C305C7C19631A5
:101D300011F00E94681886E390E013DC8C01009794
:101D400009F4C1C18091B805F801828382E08383E0
:101D5000848386E1858388EB9BE09093BF05809325
:101D6000BE05ACC10E946817F0DE8AE090E0909357
:101D7000BF058093BE05A7C14091C005442359F11A
:101D800041504093C00550E083E090E0841B950BE8
:101D900024EF31E0829FB001839F700D929F700D00
:101DA00011246C597F4F84E090E0841B950BAC01AB
:101DB000429FC001439F900D529F900D1124A7DCBC
:101DC0009093BF058093BE0586E390E0CADB8C014B
:101DD0000097A9F478C18091BA05833038F48F5FF9
:101DE0008093BA0583E08093C0056DC188EB9BE0CA
:101DF0009093BF058093BE051092BB0564C13ED889
:101E00009093BD058093BC050E94F417DC018C9172
:101E10008F3F09F056C181E0F8018187128283E487
:101E200085838091BA0586838091BC059091BD051C
:101E30009087878386E08383848340C14091C00577
:101E4000442359F141504093C00550E083E090E0B5
:101E5000841B950B24EF31E0829FB001839F700DAE
:101E6000929F700D11246C597F4F84E090E0841B89
:101E7000950BAC01429FC001439F900D529F900D66
:101E8000112445DC9093BF058093BE0586E390E066
:101E900068DB8C010097A9F416C18091BA058330E4
:101EA00038F48F5F8093BA0583E08093C0050BC13F
:101EB00088EB9BE09093BF058093BE051092BB0515
:101EC00002C1DC0112961C92129783E013968C9348
:101ED000139714968C93149781E015968C9315970D
:101EE0008091BA0516968C93E9C08091C00588232D
:101EF00099F081508093C00564E670E084EF91E032
:101F000006DC9093BF058093BE0586E390E029DB55
:101F10008C010097A1F4D7C081E08093BA0583E0DB
:101F20008093C00564E670E084EF91E0F0DB90936D
:101F3000BF058093BE0582E08093BB05C4C080913D
:101F4000B805F801828384E08583868381E08783F6
:101F500010868EE181877801FAE0EF0EF11C87E1AF
:101F600089839701AE014F5F5F4F61E080E09FEF93
:101F70000BD38981823058F586E089839701AE01C1
:101F80004F5F5F4F61E080EC9FEFFED28981E80EEA
:101F9000F11C9FE5D7019C938F5F89830E94F41702
:101FA000FC018081982F92959F709A3010F0995C77
:101FB00001C0905DD70111969C938F708A3010F00C
:101FC000895C01C0805DF701828389818E5F8A5FB1
:101FD000D80113968C93139714968C936FC08091AD
:101FE000C005882329F12FEF280F2093C00583E037
:101FF00090E0821B9109BC01660F771F9C01220FA4
:10200000331F220F331F220F331F620F731F24E170
:10201000FC012E9FC0012F9F900D112478DB90931F
:10202000BF058093BE058091C3058A3051F40BC073
:1020300081E090E09093BF058093BE051092BB05B0
:1020400042C0823189F486E390E08BDA8C010097FC
:10205000D1F1E091C405F091C50586E3D801019066
:102060000D928A95E1F72AC08C3031F50091C405B4
:102070001091C505D80116968C9180768032C1F4F6
:1020800086E390E06EDA8C010097E9F084EC95E04D
:10209000DC01ED91FC9126E3D80101900D922A9587
:1020A000E1F7DC01ED91FC9186818068868306C0B2
:1020B00086E18093C30502C00E946818C80129D731
:1020C00002C00E9468180F90DF91CF911F910F916D
:1020D000FF90EF9008958091BB05089581E0909165
:1020E000C305963109F080E00895CF92DF92EF9218
:1020F000FF920F931F93CF93DF931F92CDB7DEB75D
:10210000F82EE62ED42EC52E8091C305863109F017
:10211000DFD786E390E025DA8C01009709F464C0EC
:102120002091BC053091BD052F5F3F4F2F3F8FEFB2
:10213000380729F03093BD052093BC0506C021E087
:1021400030E03093BD052093BC05ECEBF5E08081D9
:102150009181ECE0FE1216C0F801E682C782D086BB
:10216000918782878BE289839801255F3F4FAE017B
:102170004F5F5F4F6E2D8D2D9C2DD0D48981895F4F
:1021800089831DC0FAE0FF120DC0F801C682D78214
:1021900090878187B801665F7F4F8E2D12D38A5F4B
:1021A00089830DC0F2E1FF1209C0F801E68297832E
:1021B000808783E2818786E0898301C089D7809107
:1021C000B805F8018283898183838483F092C305F3
:1021D000F5821093C5050093C4051092BF051092B7
:1021E000BE0583E08093C0050F90DF91CF911F91D2
:1021F0000F91FF90EF90DF90CF900895637039F5C5
:102200002091CC053091CD052817390751F0E8ED24
:10221000F5E021E030E0408151814817590781F411
:1022200002C020E030E0C901880F991F280F391F34
:10223000C901880F991F880F991F88539A4F0895D5
:102240002F5F3F4F3C962031310529F737C0613071
:10225000C1F59923CCF581152FEF920709F188304C
:102260002FEF920789F080312FEF920781F08431B0
:102270002FEF920779F0803C2FEF920771F0CF9605
:1022800031F585E090E00EC081E090E00BC082E087
:1022900090E008C083E090E005C084E090E002C0D8
:1022A00080E090E09C01220F331F820F931F880F64
:1022B000991F880F991F8F5C9E4F089580E090E0D2
:1022C000089580E090E0089580E090E0089580E037
:1022D00090E00895FC0120812F3451F128F421343D
:1022E00041F0293441F424C0203519F0233519F484
:1022F0001FC082E00895FC018181873579F028F4C0
:10230000823451F0843471F011C0813769F087371D
:1023100089F0843659F404C081E0089582E008957C
:1023200084E8089584E0089588E8089580E0089599
:1023300080E0089582E80895AF92BF92CF92DF9235
:10234000EF92FF920F931F93CF93DF931F92CDB71E
:10235000DEB77B015A01FC01C280D380018110E00D
:10236000F801E254F109E933F10550F5E653FF4F66
:102370006EC681E0FB0180831BC082E0FB0180838D
:1023800017C084E0FB01808313C041E050E0B60138
:10239000CE010196B7D69981F7018081981708F48C
:1023A000892FF7018083882369F0FFEFCF1ADF0AB6
:1023B000F701408150E0B601C501A4D680E003C01A
:1023C00083E001C080E00F90DF91CF911F910F91CA
:1023D000FF90EF90DF90CF90BF90AF900895CF9295
:1023E000DF92EF92FF920F931F93CF93DF931F9291
:1023F000CDB7DEB769836A01FC01E280F380018119
:1024000010E0F801E254F109E933F105F8F4ED5F69
:10241000FE4F1DC681E0898312C082E089830FC010
:1024200084E089830CC041E050E0B701CE01019601
:1024300079D68981882361F0FFEFEF1AFF0A49817D
:1024400050E0B701C6016ED680E003C083E001C052
:1024500080E00F90DF91CF911F910F91FF90EF904F
:10246000DF90CF900895BBDF0E94360280E0089590
:10247000AF92BF92CF92DF92EF92FF920F931F9392
:10248000CF93DF9300D000D0CDB7DEB78031D8F541
:1024900090E0FC01EE0FFF1FE80FF91FEE0FFF1F8A
:1024A000EE0FFF1FE853FA4F2FEF3FEF35832483E2
:1024B0000CE110E07F0144E050E0B801CE0101964C
:1024C00021D6CE2CDF2C44E050E0B701CE0101969E
:1024D00003D6892B79F48FEF89838A832FEF3FEF1F
:1024E0003C832B8344E050E0602F712FCE01019696
:1024F00019D605C00C5F1F4F0C351105E1F68C2D68
:102500009D2D0E9492010F900F900F900F90DF91E0
:10251000CF911F910F91FF90EF90DF90CF90BF90E0
:10252000AF9008958091CC059091CD05019659F01A
:10253000E8EDF5E021E030E0C901408151814F3FF5
:102540005F4FC9F402C080E090E09C01220F331F6E
:10255000F901E80FF91FEE0FFF1FEE0FFF1FE85301
:10256000FA4F1782168211861086138612861582FC
:102570001482CF0108952F5F3F4F3C9620313105E3
:10258000D9F680E090E008950F931F93CF93DF93E7
:10259000EA01890133DE009719F4188282E00FC046
:1025A000DC011696ED91FC911797309719F418827B
:1025B00083E005C0A801BE01099581111882DF9151
:1025C000CF911F910F9108950F931F93CF93DF9396
:1025D000EB019A01FC01628173816115710579F447
:1025E00008810A3010F410E002C00AE010E0A801EF
:1025F00067E271E0C9017DD5088380E00BC06130DE
:10260000710519F08FEF9FEF02C080E19FEFAE01DF
:1026100061E0BADFDF91CF911F910F9108951F9371
:10262000CF93DF93142FE901E9DD009759F0DC0126
:102630001896ED91FC911997309731F0AE01612F0A
:10264000099503C082E001C083E0DF91CF911F9123
:102650000895CF92DF92EF92FF920F931F93CF9343
:10266000DF9300D000D000D0CDB7DEB781E0898302
:102670001A829E012E5F3F4FAE014F5F5F4F61E0B8
:1026800080E09FEF81DF8A818F3F39F0ECECF5E04D
:102690002CE836E08FEF9FEF29C01FEF1E839E01CD
:1026A0002A5F3F4F41E061E080E19FEFB8DF1D838B
:1026B0009E012B5F3F4F41E061E084E19FEFAFDF80
:1026C00080E590E09C838B839E012D5F3F4F42E02D
:1026D00061E088E09FEFA3DF1A829E012E5F3F4FEB
:1026E00040E061E080E09FEF9ADFD0CF918380836C
:1026F0003C96E217F307D1F780E190E09C838B834F
:102700001092C7051092C6050E945F011C821B82B1
:1027100060E070E000E010E007C00F5F1F4F3C96E4
:102720000031110561F43EC0F801EE0FFF1FE00F0C
:10273000F11FEE0FFF1FEE0FFF1FE453FA4F8081D2
:102740009181019651F7C801880F991F800F911F41
:10275000880F991F880F991FFC01E853FA4F7F01DA
:10276000660F771F660F771F645E7F4F44E050E06F
:10277000CF01C8D4F701808181508E3F50F4C7014A
:102780000E947401811105C00F5F1F4FF701158270
:1027900014826B817C816F5F7F4F7C836B836031A0
:1027A000710510F226960FB6F894DEBF0FBECDBFAE
:1027B000DF91CF911F910F91FF90EF90DF90CF901D
:1027C0000895FF920F931F93CF93DF9390E09C01A6
:1027D000220F331FD901A80FB91FAA0FBB1FAA0FC1
:1027E000BB1FA853BA4F4C91FB0140833296119600
:1027F0004C91DB0111964C93820F931FDC01AA0FC1
:10280000BB1FAA0FBB1FA853BA4F12964D915C91E4
:102810001397D3E010E020E137E2F12C01E04217FA
:102820005307E8F0CA01B901E2D3C62F482F592F48
:10283000ADECBCEC12D49C013695279536952795C6
:1028400036952795C11102C0112329F0C05DC083C0
:10285000DF5F3196102F2A30310508F70CC0ADEC40
:10286000BCECFBD39C01369527953695279536957C
:102870002795CF2DE9CF405D40838D2FDF91CF91FC
:102880001F910F91FF9008958F3F2FEF920799F0BE
:102890002091C6053091C705F901EE0FFF1F2E0FDD
:1028A0003F1FF901EE0FFF1FEE0FFF1FE853FA4F16
:1028B0009583848303C08091C605DADD8091C605C7
:1028C0009091C70501969093C7058093C60508951A
:1028D0008F929F92AF92BF92CF92DF92EF92FF9230
:1028E0000F931F93CF93DF93CDB7DEB728970FB623
:1028F000F894DEBF0FBECDBF8C01DC0116968C9123
:102900001697898317968C9117978A836C916930F3
:1029100020F1F801399618964C9180ED840F8A3099
:10292000F8F420E030E058E005C0419180ED840FDC
:102930008A30C0F4C901880F991F220F331F220F5C
:10294000331F220F331F280F391F240F311D20532F
:1029500031095F5F5613E9CF05C020E030E002C0C7
:1029600020E030E03C832B83CE0101960E9463017E
:10297000823009F4B7C0F801828190E0982F88274F
:1029800023818C01022B0F2EF8ECCF2EF5E0DF2EE9
:10299000F02DA12CB12CEE24EA94FE2CD601149635
:1029A0008D909C901597BFEF8B169B0629F4EFEF47
:1029B000EE16FE0671F40CC044E050E0B601CE0104
:1029C00001968AD3892B81F00815190511F48CC062
:1029D0007501FFEFAF1ABF0A2CE0C20ED11C80E1D7
:1029E000A816B104D9F601C07501AFEFEA16FA06D0
:1029F00009F47CC0F701EE0FFF1FEE0DFF1DEE0F77
:102A0000FF1FEE0FFF1FE853FA4F84819581019657
:102A100009F050C00F3FEFEF1E0709F469C0C7016E
:102A2000880F991F8E0D9F1D880F991F880F991F62
:102A300088539A4F49815A816B817C81DC014D9387
:102A40005D936D937C9313970E947401811152C022
:102A5000F701EE0FFF1FEE0DFF1DEE0FFF1FEE0F34
:102A6000FF1FE853FA4F158304830CE110E044E0A4
:102A700050E0B801CE01059645D344E050E0BE01D8
:102A80006B5F7F4FCE01019627D3892B89F08D8113
:102A900081508E3F40F044E050E0602F712FCE0116
:102AA000019640D305C00C5F1F4F0C351105F9F698
:102AB00080E021C00F3FBFEF1B0721F48E2DD8DC33
:102AC00080E019C0F701EE0FFF1FEE0EFF1EF701A9
:102AD000EE0FFF1FEE0FFF1FE853FA4F158304831D
:102AE00080E009C083E007C082E005C081E003C048
:102AF00082E001C082E028960FB6F894DEBF0FBED8
:102B0000CDBFDF91CF911F910F91FF90EF90DF909C
:102B1000CF90BF90AF909F908F900895EF92FF92CB
:102B20000F931F93CF93DF937A01E90167DB8C0149
:102B3000009721F4D7011C9282E06FC0DC01169649
:102B4000ED91FC911797309721F4F701108283E003
:102B500064C0AE01B701099581115BC0C801BADB41
:102B6000882324F58F778230E8F0282F30E0FE01AB
:102B7000E20FF31F31979081911108C02C0F3D1F78
:102B8000F90132979081992354F40CC09F3F51F47E
:102B90002C0F3D1FF9013297908199231CF481502D
:102BA000813019F7D7018C9380E037C08823A1F1D9
:102BB000282F30E0FE01E20FF31F31979081992317
:102BC00064F0823010F1911120C02C0F3D1FF901EB
:102BD00032979081992334F418C0C20FD31F188202
:102BE0008F5F13C08150813081F0282F30E0FE01CB
:102BF000E20FF31F31979081911107C02C0F3D1FF9
:102C0000F9013297908199236CF7F701808380E076
:102C100004C0D7011C9201C080E0DF91CF911F91C9
:102C20000F91FF90EF900895FF920F931F93CF9312
:102C3000DF93F42EE901E2DA8C01009759F1DC010F
:102C400018968D919C911997892B31F1C80142DB1F
:102C5000682F6F77F61690F4FE01EF0DF11D319796
:102C60008081880F880B91E09F0DFE01EF0DF11D13
:102C70008083961711F0F92EF6CFF62E611101C060
:102C80006F2DD8011896ED91FC911997AE01C801EE
:102C9000099503C082E001C083E0DF91CF911F91CD
:102CA0000F91FF900895CF93DF930E94A10113DA53
:102CB000853009F066C08091C6059091C7054097A0
:102CC00008F452C01092C7051092C6054DC0F90114
:102CD000EE0FFF1FE20FF31FEE0FFF1FEE0FFF1FA0
:102CE000E853FA4F848195810196A9F1F901EE0F1D
:102CF000FF1FE20FF31FEE0FFF1FEE0FFF1FE85342
:102D0000FA4F0284F385E02D309729F1C901880F2D
:102D1000991F280F391FC901880F991F880F991F04
:102D200060E088539A4F09958823A9F08091C605E1
:102D30009091C705FC01EE0FFF1F8E0F9F1FFC0136
:102D4000EE0FFF1FEE0FFF1FE853FA4F448155812E
:102D500060E28CE0CAD98091C6059091C7050196C2
:102D60009093C7058093C605B9D9882309F47CC020
:102D70002091C6053091C7052031310508F4A7CF51
:102D800073C0843009F06CC08091C6059091C7056E
:102D90008031910570F5FC01EE0FFF1FE80FF91F60
:102DA000EE0FFF1FEE0FFF1FE853FA4F248135810E
:102DB0002F3F3F4FC1F092D9882309F455C060914D
:102DC000C6057091C705FB01EE0FFF1FE60FF71F49
:102DD000EE0FFF1FEE0FFF1FE853FA4F448155819E
:102DE0008AE083D941C001969093C7058093C605B8
:102DF0003BC08F3F2FEF920751F1803C9F4F30F443
:102E000080EC9FEF9093C7058093C60567D9882310
:102E100059F1C091C605D091C70561E0CE01EED948
:102E2000892B71F0AE0161E38CE05FD98091C6051A
:102E30009091C70501969093C7058093C60514C06D
:102E40008FEF9FEF9093C7058093C6050DC046D9BD
:102E5000882351F040E050E060E282E146D904C0AE
:102E60001092C7051092C605DF91CF91089580E0BA
:102E70000E94F909882359F180918D0690918E0660
:102E8000009731F00E940E0B10928E0610928D0664
:102E9000809195068823D9F080E996E00E94660B20
:102EA00090938E0680938D06892B09F411D181E0D1
:102EB00090E00E94660AE0918D06F0918E06AF01C7
:102EC0004D5F5F4F63816F5F80E00C94070A089548
:102ED000CF93DF931F92CDB7DEB702C00E940E0BD7
:102EE00080E996E00E94660B0097C1F781E0898334
:102EF0002FE836E0AE014F5F5F4F61E080E19FEF6A
:102F000043DB64E080E00E94BC090F90DF91CF9129
:102F10000895CF93DF93EC01BC0180E996E00E9415
:102F2000330B811104C0CE010E940E0B01C09FDF44
:102F3000DF91CF910895CF939ADF41C080E00E9446
:102F4000320AC82F10928C0690918B06911111C0F5
:102F50008230A8F186E390E00E94B10A90938A063D
:102F600080938906892B11F0C0938B0610928806F6
:102F700026C080918806823358F4E0918906F0914A
:102F80008A0621E0280F20938806E80FF11DC483EC
:102F900080918806981313C0E0918906F0918A0603
:102FA00080918F068283938310928B0681E090E05C
:102FB0000E94660A8091890690918A0613C080E07B
:102FC0000E94220A8111BACF80918C068150809391
:102FD0008C06811105C010928B0680E090E002C043
:102FE00080E090E0CF9108958FE896E00895AA1BC5
:102FF000BB1B51E107C0AA1FBB1FA617B70710F0E4
:10300000A61BB70B881F991F5A95A9F78095909515
:10301000BC01CD010895052E97FB16F400940FD046
:1030200057FD05D033D007FC02D046F408C05095B8
:103030004095309521953F4F4F4F5F4F08959095A4
:103040008095709561957F4F8F4F9F4F0895EE0F3C
:10305000FF1F0590F491E02D0994A29FB001B39F4A
:10306000C001A39F700D811D1124911DB29F700D91
:10307000811D1124911D0895F0DFA59F900DB49F2F
:10308000900DA49F800D911D11240895A1E21A2E88
:10309000AA1BBB1BFD010DC0AA1FBB1FEE1FFF1FFC
:1030A000A217B307E407F50720F0A21BB30BE40B4C
:1030B000F50B661F771F881F991F1A9469F7609593
:1030C0007095809590959B01AC01BD01CF0108954D
:1030D00081E090E0F8943DC0FB01DC0104C08D91DB
:1030E0000190801921F441505040C8F7881B990B7A
:1030F0000895FB01DC0102C001900D924150504047
:10310000D8F70895DC01CB01FC01F999FECF06C088
:10311000F2BDE1BDF89A319600B40D924150504095
:10312000B8F70895DC01CB0102C02D9105D04150C4
:103130005040D8F70895262FF999FECF1FBA92BDB7
:1031400081BD20BD0FB6F894FA9AF99A0FBE019688
:063150000895F894FFCF82
:103156005EA1FFFF1D1E090A01000809C0E0032544
:103166000028002B009F01CF00670033001900C024
:10317600000000000000004131536E31322E333022
:10318600314573020000FF9C11EF11000045571AEC
:103196000008FF9C11331200004542720010FF9C8C
:1031A60011EF1100004542730014FF9C11EF11004E
:1031B6000046730000C0FFE41200000000466101F3
:0A31C60000C1FFE412000000000049
:00000001FF
