:1000000040C100005BC1000059C1000057C10000A1
:1000100055C1000053C1000051C100000C94440AB6
:100020004DC100004BC1000049C1000047C10000A4
:1000300045C1000043C1000041C100003FC10000B4
:100040003DC100003BC100000C94620C0C948C0C70
:1000500035C1000033C1000031C100002FC10000D4
:100060000C94940B2BC10000AF0B3E0C3E0C3E0CCD
:100070003E0C3E0C3E0C3E0CAF0B3E0C3E0C3E0CC0
:100080003E0C3E0C3E0C3E0CD20B3E0C3E0C3E0C8D
:100090003E0C3E0C3E0C3E0CC60B3E0C3E0C3E0C89
:1000A0003E0C3E0C3E0C3E0CD20B3E0C3E0C3E0C6D
:1000B0003E0C3E0C3E0C3E0CE90B3E0C3E0C3E0C46
:1000C0003E0C3E0C3E0C3E0C3E0C3E0C3E0C3E0CE0
:1000D0003E0C3E0C3E0C3E0C100C3E0C3E0C3E0CFE
:1000E0003E0C3E0C3E0C3E0CC60B3E0C3E0C3E0C39
:1000F0003E0C3E0C3E0C3E0C010C3E0C3E0C3E0CED
:100100003E0C3E0C3E0C3E0C260C8F0FAC0FD60F57
:100110006F116F11F70F6F116F116F116F110F10BA
:1001200025105A108A106F116F116F116F116F1116
:10013000B3106F116F116F11DE10F0106F116F118E
:100140006F116F116F116F116F116F116F116F11AF
:100150006F116F116F116F116F116F116F116F119F
:100160006F116F116F116F116F116F116F116F118F
:100170006F116F116F116F116F116F116F116F117F
:100180006F116F116F116F116F116F116F116F116F
:1001900010113A116915901571159015901590155B
:1001A0009015901590159015901590159015901527
:1001B00090159015901590159015901590156D153A
:1001C0009015901590159015901590159015901507
:1001D0009015751569159015711590159015901558
:1001E00090159015901590159015901590159015E7
:1001F00090159015901575159015901590156D1515
:10020000901590156915BA15D615C015D615D615C1
:10021000D615D615D615D615D615D615D615D61586
:10022000D615D615D615D615D615D615D615D61576
:10023000BD15D615D615D615D615D615D615D6157F
:10024000D615D615C315BA15D615C015D615D6159B
:10025000D615D615D615D615D615D615D615D61546
:10026000D615D615D615D615C315D615D615D61549
:10027000BD15D615D615BA150001020304050607EB
:100280000E0011241FBECFEFD8E0DEBFCDBF11E0BE
:10029000A0E0B1E0E6EAFAE302C005900D92A23CCC
:1002A000B107D9F726E0A2ECB1E001C01D92A53F4D
:1002B000B207E1F70E94600D0C94511DA1CE0E947F
:1002C000860DDC01CB01805D9A48AF4FBF4F809314
:1002D000C2019093C301A093C401B093C5010895D6
:1002E0000F931F93CF93DF9300D000D000D0CDB7F2
:1002F000DEB70E94860D0091C2011091C3012091CA
:10030000C4013091C5016017710782079307A0F1FE
:100310000E94860DDC01CB01805D9A48AF4FBF4F34
:100320008093C2019093C301A093C401B093C5010F
:1003300086E390E00E94E10D8C010097E9F0AE01A8
:100340004F5F5F4FBE016D5F7F4FCE0105960E94EC
:100350009F0E89819A81F801938784878D819E8180
:10036000958786878B819C819787808B86E08383A6
:10037000B80181E00E94450F26960FB6F894DEBFC3
:100380000FBECDBFDF91CF911F910F9108951ED366
:1003900009D10E94F009BFC50895FC0120812135D3
:1003A00038F42F3440F4213441F0293421F009C0CD
:1003B000233529F006C0D4C20895B8C00895C2C537
:1003C000089582E00895FC01178216821186108636
:1003D0001386128680818F3459F028F4813471F0AD
:1003E000893431F011C0803531F0833551F00CC0C3
:1003F000CF0101C30895CF0194C30895CF01E3C095
:100400000895CF01D9C5089583E00895FC012081A6
:10041000213538F42F3440F4213441F0293421F0CF
:100420000895233529F00895E5C30895F9C0089586
:100430008CC6089519D407D1E1C60895982F9770F6
:1004400029F021E0220F9150E9F701C021E08695C3
:1004500086958695662341F0E82FF0E0E852FE4F3E
:100460008081282B20830895E82FF0E0E852FE4F8A
:1004700020958081282320830895EF92FF920F9387
:100480001F93CF93DF937B018A01FC01C281D3814B
:1004900060E08C2FD3DF82E0F7018083DD27CC0F73
:1004A000DD1FCF51D94F8881F801808389818183F5
:1004B00080E0DF91CF911F910F91FF90EF90089511
:1004C0000F931F93CF93DF93FA01018110E0102F58
:1004D00000272081022BFC01C281D38160E08C2F98
:1004E000ADDFDD27CC0FDD1FCF51D94F1983088336
:1004F00080E0DF91CF911F910F910895DC0112965A
:10050000EC918E2F877029F091E0990F8150E9F7D7
:1005100001C091E0E695E695E695F0E0E852FE4FE1
:100520008081982381E009F480E00895FC01218115
:10053000293611F0263791F4FC01828193818930AC
:10054000910550F49927FC01E153FE4F81E0908121
:100550009F3F29F480E0089582E0089582E00895A5
:10056000CF93DF931F92CDB7DEB782E089832DEC66
:1005700031E0AE014F5F5F4F61E088E09FEF0E9486
:1005800074168091CD019091CE01893E9D4F30F03F
:1005900088EE9DEF9093CE018093CD010F90DF9177
:1005A000CF910895EFECF1E0A1EEB6E088ED91E097
:1005B0002FEF21931D921D92E817F907D1F71092A2
:1005C000D801CECF0895FC018281938189309105B5
:1005D00018F59927DC01A153BE4F2C912F3FF1F460
:1005E0002181293631F0263711F421E003C02FEFA5
:1005F00001C022E0DC01A153BE4F2C938DE392E0B9
:100600009783868380E692E0918780878EE792E0E9
:100610009387828780E0089582E0089582E00895BC
:10062000FC01828193818930910560F49927FC0156
:10063000E153FE4F20812F3F29F0FC01E153FE4F93
:100640002FEF20830895CF92DF92EF92FF92CF9306
:100650008091CB019091CC01009711F58091CA0156
:10066000E82FF0E0E153FE4F60816F3F49F48F5F68
:10067000893019F08093CA0185C01092CA0182C0E6
:1006800026D781E090E09093CC018093CB0110922B
:10069000C6011092C7011092C8011092C90172C020
:1006A0002091CD013091CE01A9014B5F5F4F84179E
:1006B000950740F52BD72091CB013091CC012F5FCE
:1006C0003F4F3093CC012093CB012530310508F406
:1006D00059C0AA2797FDA095BA2F4091C601509105
:1006E000C7016091C8017091C901840F951FA61FB1
:1006F000B71F8093C6019093C701A093C801B09320
:10070000C90140C02F5F3F4F40E050E06091C601FB
:100710007091C7018091C8019091C9010E94B31CDA
:100720002093C6013093C7014093C8015093C9017B
:10073000C091CA016C2F70E0FB01EE0FFF1FEF515B
:10074000F94FC080D180EE24D7FCE094FE2C2C150C
:100750003D054E055F0551F0FB01EE0FFF1FEF5108
:10076000F94F3183208361E08C2F68DE1092CC0139
:100770001092CB01CF5FC93019F0C093CA0102C0FB
:100780001092CA01CF91FF90EF90DF90CF90089523
:10079000877099279C0121503109892B31F081E024
:1007A000880F21503109E0F7089581E00895CF9333
:1007B000DF93EC01EDDFD695C795D695C795D69515
:1007C000C795C250C230A8F4D0E0FE01E75FFE4FEB
:1007D0009081982381F4FE01E352FE4F908198238B
:1007E00061F4C152DE4F9881982381E039F480E0B2
:1007F00005C082E003C082E001C081E0DF91CF91BB
:100800000895DA0111966C91119770E0762F6627A2
:100810002C91622BFC0121812E3611F4609570958C
:10082000DC011296ED91FC911397E95FFE4F8081F8
:10083000D9D680E00895CF93FC0182819381FC0199
:10084000F695E795F695E795F695E795E250E2304F
:1008500010F0C2E001C0CE2F9BDFEC2FF0E0E7529A
:10086000FE4F9081982381E009F480E0CF910895B4
:100870000F931F93CF93DF93EC018A819B81FA0141
:1008800010819C01369527953695279536952795A5
:100890002250223010F002E001C0022F79DF202F19
:1008A00030E0982F9095F901E752FE4F408149239F
:1008B000408349814E3609F4109510FF07C0F901B5
:1008C000ED50F94F9081892B808306C0F901ED50DE
:1008D000F94F80819823908380E0DF91CF911F9121
:1008E0000F910895BF92CF92DF92EF92FF920F93F4
:1008F0001F93CF93DF93EC016B017A018A819B8177
:100900008C01169507951695079516950795025033
:10091000023008F002E010E0F801ED50F94FB0802D
:1009200037DFF801E752FE4F982F909520819223F0
:10093000908399819E3609F4B09491E0F6019083FA
:100940008B2109F490E0F701908380E0DF91CF9153
:100950001F910F91FF90EF90DF90CF90BF9008957F
:10096000FC012081293411F02F3459F4FC0121813C
:100970002E3611F0203721F5FC018281938117CFAB
:1009800008952035F9F4FC0121812E3611F020372D
:10099000D9F4FC01828193818230910568F4FC01D5
:1009A000E95FFE4F20812F3F49F0FC01EB5FFE4FD6
:1009B000808190E0FCCE089582E0089582E0089561
:1009C00082E0089582E0089582E008951092DF01A8
:1009D0001092DD011092DB011092D9011092F30602
:1009E0001092E0011092DE011092DC011092DA0107
:1009F0001092F4060895DF92EF92FF920F931F93E7
:100A0000CF93DF93EC010A811B81C801D0DE8111F5
:100A10007FC0C801969587959695879596958795F9
:100A20008250823020F06894EE24E1F801C0E82E74
:100A3000C801AEDEF82E0E2D10E0D82ED094F801AD
:100A4000E752FE4F80818D21808388818F3439F574
:100A500088E394E09987888743E06F2D8E2D76D5C3
:100A6000F801E152FE4F80818F2980838981803790
:100A700059F46F2D8E2DA8D5F801ED50F94F8081D6
:100A8000D822D08280E045C06F2D8E2D90D5F80100
:100A9000ED50F94F8081F82AF08280E03AC022E7D9
:100AA00034E03F832E8328E334E0398728872BE125
:100AB00034E03B872A87F801E352FE4F80818F297B
:100AC00080838981803791F441E06F2D8E2D3ED552
:100AD000F801E552FE4F80818D218083F801ED50B1
:100AE000F94F8081D822D08280E013C042E06F2D80
:100AF0008E2D2CD5F801E552FE4F80818F29808301
:100B0000F801ED50F94F8081F82AF08280E001C0B1
:100B100082E0DF91CF911F910F91FF90EF90DF90D6
:100B20000895EF92FF920F931F93CF93DF93EC0101
:100B30002A813B812230310508F050C0F901E95F7C
:100B4000FE4FE0808FEFE81609F44AC0F901EB5F31
:100B5000FE4F008110E0C8012ADE811143C0F80178
:100B6000F695E795F695E795F695E795E250E2302C
:100B700020F06894FF24F1F801C0FE2EC80108DEC1
:100B8000182F44E0682F8F2DE1D48981803771F4CC
:100B900060E070E08E2D26D5AF2DB0E0AD50B94F9E
:100BA0009C91812F809589238C930BC06FEF7FEFF1
:100BB0008E2D18D5AF2DB0E0AD50B94F8C91812B53
:100BC0008C93EF2DF0E0E152FE4F8081182B1083C3
:100BD00081E094E09987888780E005C082E003C0C7
:100BE00082E001C082E0DF91CF911F910F91FF90D1
:100BF000EF9008951F93CF93DF93FC01C281D381BF
:100C00008081803559F4FE01E95FFE4F60E070E0BD
:100C10008081E8D4CB5FDE4FC881D0E0CE019695CD
:100C2000879596958795969587958250823010F096
:100C300012E001C0182FCE01ABDD682FE12FF0E0EC
:100C4000982F9095DF01A152BE4F8C9189238C93F0
:100C5000E352FE4F80819823908340E0812F76D429
:100C6000DF91CF911F9108952F923F924F925F9203
:100C70006F927F928F929F92AF92BF92CF92DF92AC
:100C8000EF92FF920F931F93CF93DF930F2EFDED03
:100C9000AF2EF1E0BF2EF02D0F2EFFEDCF2EF1E0A5
:100CA000DF2EF02DC3EFD6E00BED11E00F2EF9EDA6
:100CB000EF2EF1E0FF2EF02D712C6894442443F8C0
:100CC000512C66246394D5019D905D01992051F1CA
:100CD000872D61D48921242D352D962DF8011E01F3
:100CE000492F4921C9F0D8015C91682F65276423F9
:100CF00039F040955423682F6923562B50830CC03C
:100D00005881682F6527462339F05427D1015C9319
:100D1000D7015C91452B4C93990F21503109211536
:100D20003105F1F6F60131906F01332071F04E017B
:100D30006881632111F0872D3AD4D4018C9180957C
:100D4000682F632111F0872D3FD4739421960F5F94
:100D50001F4FBFEFEB1AFB0AE2E07E12B4CFDF9128
:100D6000CF911F910F91FF90EF90DF90CF90BF90A8
:100D7000AF909F908F907F906F905F904F903F903B
:100D80002F900895FF920F931F93CF93DF938B01C2
:100D9000FB01F080FC0122813381ADECBCEC0E94B0
:100DA000D51C9695879596958795FC01EE7FF170F9
:100DB000EF51FE4FC081D1813C818D81FF20C9F070
:100DC0003817C9F0E42FF52F90E040E021E0280F1C
:100DD000AA81BB81A80FB11D8C918193263310F499
:100DE000822F01C0842F9F5F9F1531F08313EECFB8
:100DF00003C090E001C090E08D83F801908380E013
:100E0000DF91CF911F910F91FF900895FC012281F6
:100E10003381ADECBCEC0E94D51C969587959695D8
:100E20008795FC01EE7FF170EF51FE4F0190F0814C
:100E3000E02D309711F40E94101D94818581981740
:100E400039F0818184FD06C08061818380E008954E
:100E500080E0089581E00895AF92BF92CF92DF9233
:100E6000FF920F931F93CF93DF93F62E8A01FC011D
:100E700022813381ADECBCEC0E94D51C9695879500
:100E80009695879596958795EC01DD27FE01EE0FE7
:100E9000FF1FEF51FE4F0190F081E02D309711F4CC
:100EA0000E94101DFF2031F186819781892B21F549
:100EB00080E0B6D5882311F186E390E082D66C01FC
:100EC0000097F1F05C01F4E0AF0EB11C4F2D50E043
:100ED000B801C5010E94211DA5016F2D80E0AED58E
:100EE000CC0FDD1FCF51DE4FE881F981D782C6825A
:100EF00080E007C080E005C081E003C081E001C060
:100F000081E0DF91CF911F910F91FF90DF90CF9003
:100F1000BF90AF90089580E02FD5E091E101F0916E
:100F2000E201309771F086819781009709F0CBD666
:100F30008091E1019091E201C6D61092E2011092F7
:100F4000E1010895DC011196EC91119712964D91F3
:100F50005C9113979A01ADECBCEC0E94D51C969560
:100F60008795969587959695879581111DC00E94C6
:100F7000D51C9695879596958795969587959C010E
:100F8000220F331F880F991F880F991F880F991FF1
:100F9000820F931F481B590B453040F4E23741F054
:100FA000E43741F480E0089582E0089582E00895F6
:100FB00080E0089582E00895DF92EF92FF920F9310
:100FC0001F93CF93DF938C01FC01428153819A01DF
:100FD000ADECBCEC0E94D51C9C013695279536954E
:100FE000279536952795C901880F991F220F331F22
:100FF000220F331F220F331F280F391F7A01E21AE5
:10100000F30ADE2C9A010E94D51C96958795969539
:10101000879596958795EC01DD27FE01EE0FFF1F62
:10102000EF51FE4F0190F081E02D309721F080814B
:101030008E1176C024C088E090E0C3D5FE01EE0F8B
:10104000FF1FEF51FE4F91838083009709F46AC020
:10105000FC01E082FE01EE0FFF1FEF51FE4FA08169
:10106000B18111961C920190F081E02D13821282C1
:1010700014821582178216826E2D80E094D4F801B6
:1010800081818437A9F4CC0FDD1FCF51DE4FE88179
:10109000F981818180FD48C090819D1147C08160A8
:1010A00081838CE297E0F8019187808780E045C0DA
:1010B000FE01EE0FFF1FEF51FE4FE080F180F701C0
:1010C000818181FD35C080818D1134C08281938101
:1010D000892B91F486E390E074D5F70193838283A2
:1010E000FE01EE0FFF1FEF51FE4F0190F081E02D4A
:1010F00082819381892B01F1CC0FDD1FCF51DE4F0F
:10110000E881F98181818260818382EC96E0F80137
:101110009783868386E097E09387828780E00DC07F
:1011200082E00BC081E009C082E007C082E005C018
:1011300082E003C082E001C081E0DF91CF911F9186
:101140000F91FF90EF90DF900895CF93DF93AC0164
:10115000DC0112962D913C911397ADECBCEC0E94F2
:10116000D51C969587959695879596958795EC01CC
:10117000DD27FE01EE0FFF1FEF51FE4F0190F081C2
:10118000E02D3097C1F1DA0111968C91843721F46A
:1011900081818E7F81831AC081818D7F8183FE0151
:1011A000EE0FFF1FEF51FE4F0190F081E02D828185
:1011B0009381009759F087D5FE01EE0FFF1FEF5185
:1011C000FE4F0190F081E02D13821282FE01EE0F9E
:1011D000FF1FEF51FE4F0190F081E02D8181837060
:1011E00051F4CAD3CC0FDD1FCF51DE4F88819981D6
:1011F0006AD519821882DF91CF9108951F93CF93FA
:10120000DF93E091E101F091E201309709F44CC0E5
:10121000818180FF15C086819781892B89F080E0CC
:10122000FFD3882369F0E091E101F091E20186812A
:10123000978149D5E091E101F091E2011782168290
:10124000E091E101F091E201818181FF2DC080E018
:1012500010D4882349F1E091E101F091E201848109
:1012600011E0180F163308F010E095819117E1F0A6
:10127000C281D381C80FD11D80E00BD48883E09157
:10128000E101F091E20114838581811710F4181BAC
:1012900002C0181B1A5C1B3120F481818F7E818370
:1012A00003C0818180618183DF91CF911F91089577
:1012B000CA01E091E901F091EA01309711F40E942E
:1012C000101D45814C5FFB01408350E06091E901B6
:1012D0007091EA016E5F7F4F0E94211D8091E901AC
:1012E0009091EA01F0D41092EA011092E90180E0B5
:1012F0000895FF920F931F93CF93DF93F62E8A01E9
:1013000083E0861778F586E390E05BD4EC010097E4
:1013100059F14F2D50E0B80102960E94211D9B818A
:1013200093709B838CEF8F0D8C83882311F09160D9
:101330009B838D81882329F09B8192609B838632D9
:1013400018F48B81837021F4CE01BDD483E00FC0EB
:10135000BE0183EE91E011D5811108C0CE01B3D456
:1013600081E005C083E003C081E001C080E0DF913F
:10137000CF911F910F91FF900895CF93DF93E0914C
:10138000E901F091EA013097A9F08381C82FC07E6E
:10139000F1F4D82FD07184FF0AC08581811119C062
:1013A000CF0191D41092EA011092E90115C087D1C2
:1013B000CD2F12C08091E801882369F083EE91E07F
:1013C0000FD59093EA018093E901C0E005C0C1E028
:1013D00003C0C1E001C0C0E08C2FDF91CF91089520
:1013E00081E056D1882329F18091E9019091EA01A9
:1013F000009729F068D41092EA011092E9010E9446
:101400004216FC01009719F480E042C1089588E576
:1014100099E09783868389E799E0918780878DEBB0
:1014200099E09387828784E5808381E681831382B4
:101430001282089582E08093B0001092B2009BE97E
:101440009093B30087BB8093700087E08093B100D6
:1014500078940895809100019091010180FF09C066
:101460009695879524EB9227909301018093000134
:1014700006C0969587959093010180930001809115
:1014800000019091010108951F920F920FB60F92E3
:1014900011242F933F934F935F936F937F938F9379
:1014A0009F93AF93BF93EF93FF9339D3FF91EF9146
:1014B000BF91AF919F918F917F916F915F914F916C
:1014C0003F912F910F900FBE0F901F901895909104
:1014D0007A00992344F0A4E6B0E09C919E7F9C930F
:1014E00097E890937A00E82FF0E0E858FD4FE491F8
:1014F00080E4689FB00111246E2B606260937C00D1
:10150000EAE7F0E08081806480830895809178002C
:1015100090917900EAE7F0E020812064208396959D
:10152000879508958EBD0DB407FEFDCF8EB5089545
:10153000E4E6F0E080818B7F80832A9A84B18C621C
:1015400084B9249880E58CBD1DBC0895E82FF0E097
:10155000EE0FFF1FE55FFE4F0190F081E02DDF01F0
:101560001197423021F078F0453048F00CC080816E
:10157000862B808360958C9168236C9308958C9161
:10158000682B6C93089560958081862380838C916D
:1015900068236C930895E82FF0E0EE0FFF1FE55FDE
:1015A000FE4F0190F081E02D329780810895E82F61
:1015B000F0E0EE0FFF1FE55FFE4F0190F081E02DA0
:1015C0008081682B60830895E82FF0E0EE0FFF1F05
:1015D000E55FFE4F0190F081E02D609580816823EA
:1015E00060830895982F977086958695869519F053
:1015F0008130F9F0089584B5282F207A911108C020
:1016000077BD672B19F0822F806809C0807207C0F0
:1016100078BD672B19F0822F806201C0807881111C
:1016200003C014BC15BC0895836084BD84E085BDEF
:10163000089580918000282F207A91110BC070931B
:10164000890060938800672B11F020680DC0282F57
:1016500020720AC070938B0060938A00672B11F090
:10166000206202C0282F2078211105C0109280002E
:101670001092810008958FEF9FEF909387008093E1
:10168000860022602093800089E180938100089584
:10169000882369F0ECEBF0E080E8808388E48093B5
:1016A000B8008FEF8093BB0085E0808303C080E8A3
:1016B0008093BC0086B185FB882780F90895E0916E
:1016C000E901F091EA01309711F40E94101D838125
:1016D000982F987F19F41092EC0115C09091EC01AD
:1016E00091509093EC0191110EC09381906293837D
:1016F00083FF0BC0ECEBF0E080818B7E80838081E8
:1017000084688083089583FD0EC0359B0CC01092C1
:10171000EC01E091E901F091EA0183818860838323
:1017200085EA8093BC0008951F920F920FB60F9226
:1017300011242F933F938F939F93AF93BF93EF9376
:10174000FF938091B900887F90E0FC013897E135E4
:10175000F10508F093C0EC5CFF4F0C94CF1C109285
:10176000EB01E091E901F091EA01838180FF05C07E
:101770008281880F8093BB0005C08281880F8160C1
:101780008093BB0085E88093BC008FC0E091E901A5
:10179000F091EA01158283818064838385E98093D7
:1017A000BC0083C0E091E901F091EA01948180914D
:1017B000EB01891770F4E80FF11D86818093BB005F
:1017C0008091EB018F5F8093EB0185E88093BC00F3
:1017D0006CC0E091E901F091EA018091EB01848312
:1017E00083818E7F8383838181FD07C0158280E1A1
:1017F000838385E98093BC0058C085EA8093BC0050
:1018000054C0E091E901F091EA018091EB0191E08F
:10181000980F9093EB019091BB00E80FF11D968318
:10182000E091E901F091EA0185812091EB0130E03E
:101830002F5F3F4F90E02817390724F485EC809301
:10184000BC0033C085E88093BC002FC0E091E90163
:10185000F091EA019091EB0181E0890F8093EB0117
:101860002091BB00DF01A90FB11D16962C93858333
:1018700080E1838385E98093BC0017C0ECEBF0E046
:1018800080818B7E8083808184688083E091E90100
:10189000F091EA018091EB01848381E0858380915E
:1018A000B9008683838180688383FF91EF91BF9124
:1018B000AF919F918F913F912F910F900FBE0F90FD
:1018C0001F9018951F920F920FB60F9211242F930D
:1018D0008F939F93AF93BF93EF93FF932091C60095
:1018E000E091ED01F091EE0180A18F5F8F7191A1E8
:1018F000981731F090A1DF01A90FB11D2C9380A39F
:10190000FF91EF91BF91AF919F918F912F910F9088
:101910000FBE0F901F9018951F920F920FB60F9247
:1019200011242F933F938F939F93EF93FF93E09115
:10193000ED01F091EE0125A184A1821307C014A24C
:10194000E1ECF0E080818F7D80830BC082A193A1C8
:1019500031E0320F35A3FC01E20FF11D808180934D
:10196000C600FF91EF919F918F913F912F910F9022
:101970000FBE0F901F90189581110DC01092C100DD
:101980008BB18C7F8BB951988091ED019091EE01D4
:10199000009719F408950E94101D95D11092EE0140
:1019A0001092ED010895CF93C62F653010F00E947C
:1019B000101D81110EC01092C1008BB183608BB9D4
:1019C000519A50988091ED019091EE01892B71F41C
:1019D00002C00E94101D86E290E0F3D09093EE01C9
:1019E0008093ED01892B11F40E94101DE091ED010F
:1019F000F091EE0110A211A214A215A2EC2FF0E0BA
:101A0000EE0FFF1FE15FFE4F80819181E0ECF0E07F
:101A10009583848388E9818386E08283CF910895CA
:101A2000E82FF0E0EE0FFF1FE351FE4F0190F08131
:101A3000E02D81E094A1911180E0089590E0880F5D
:101A4000991FFC01E351FE4F0190F081E02D64A34A
:101A500021E025A353A342A3FC01E75EFE4F0190C2
:101A6000F081E02DDA018C9186838181806281830F
:101A70000895E82FF0E0EE0FFF1FE351FE4F0190B5
:101A8000F081E02D20A181E091A1291301C080E027
:101A90000895E82FF0E0EE0FFF1FE351FE4F019095
:101AA000F081E02D80A191A1891741F0DF01A90FFC
:101AB000B11D8C919F5F9F7191A3089580E008955F
:101AC00058D00E94D9160E941B1B13D4209A289A22
:101AD0000E945F011092F901ADDC8091F901882329
:101AE00051F08091F90181508093F9010E94191AF7
:101AF0004DD40E9470010E94AF1B009771F3F6D184
:101B0000ECCF909303018093020108956091F50159
:101B10007091F6018091F7019091F80108958091FC
:101B2000F5019091F601A091F701B091F8010196AD
:101B3000A11DB11D8093F5019093F601A093F701CB
:101B4000B093F8018091F9018F5F8093F901809142
:101B5000020180FF02C0289801C0289A80910201EA
:101B600090910301969587959093030180930201CC
:101B70000895E9E0F2E0F0930502E0930402109288
:101B8000070210920602A0E0B2E011961C921E928B
:101B90008FEF93E0909303028093020290930C02E4
:101BA00080930B02B183A0831092FF011092FE017B
:101BB0001092FD011092FC011092FB011092FA01AB
:101BC00008950F931F93CF93DF930FB6F8940F925E
:101BD000009709F469C0AC014C5F5F4F4F3F83E051
:101BE000580708F064C0E0910402F0910502A4E0F7
:101BF000B2E0228133812417350740F420813181FE
:101C00002115310519F0DF01F901F3CFC2E0E03011
:101C1000FC0709F44FC08D919C9111970496208187
:101C200031812D933C9322813381241B350B293044
:101C3000310510F1BF01640F751FDB0113963C9352
:101C40002E9312975383428312964D915C91139772
:101C500004E012E0E801A881B98112962D913C912F
:101C600013972417350710F48D01F4CFEB01B983D6
:101C7000A883D8016D937C934091FE015091FF01A0
:101C800022813381240F351F3093FF012093FE0101
:101C90004091FA015091FB014217530768F43093C9
:101CA000FB012093FA0108C080E090E005C080E0CD
:101CB00090E002C080E090E00F900FBEDF91CF91E6
:101CC0001F910F910895CF93DF930097A9F1BC0165
:101CD000645071090FB6F8940F92FC013497428159
:101CE0005381A4E0B2E0ED91FC9111972281338100
:101CF0002417350710F4DF01F6CFEC012497F983A0
:101D0000E8836D937C938091FE019091FF012A817D
:101D10003B81821B930B9093FF018093FE012091E6
:101D2000FC013091FD018217930720F49093FD018F
:101D30008093FC010F900FBEDF91CF910895209109
:101D4000FE013091FF01FC01318320838091FA0173
:101D50009091FB01FB01918380838091FC01909124
:101D6000FD01FA01918380833093FB012093FA01F6
:101D70003093FD012093FC010895FC01009751F17F
:101D80006115710549F10FB6F8940F92DB011D92B0
:101D90001C92A081B181109739F4718360837383A1
:101DA000628381E0858312C08481882341F025818C
:101DB00030E02F5F3F4F90E0821793077CF06D93E8
:101DC0007C937183608385818F5F85830F900FBEC5
:101DD00081E0089580E0089580E0089580E008950E
:101DE000FC010097D9F00FB6F8940F92A281B3814D
:101DF000109779F08581882311F0815085838D912A
:101E00009C91119793838283892B19F411821082FC
:101E100015820F900FBE8A2F9B2F089580E090E0CF
:101E2000089580910C0690910D0601968F3F2FEF3B
:101E3000920729F090930D0680930C0606C081E06E
:101E400090E090930D0680930C0680910C06909183
:101E50000D060895CF92DF92EF92FF92CF93DF931A
:101E6000EB01861B970B6C01E12CF12CF3DADC0102
:101E7000A70196010E94E41C8C0F9D1FDF91CF915A
:101E8000FF90EF90DF90CF9008950F931F93CF9323
:101E9000DF93EB01209729F190910B06953019F013
:101EA000CB0111DF1EC0843008F083E0082F10E062
:101EB00000521109B6DF8CE08D8381E08E83ECE067
:101EC000F6E08081918199878A871F8308878B81BB
:101ED000895F8B838C83809108068A83CE010E9460
:101EE0009F1BDF91CF911F910F910895DF92EF9289
:101EF000FF920F931F93CF93DF93EC0181E02A8130
:101F000090910806291380E04D8150E04534510539
:101F100008F0E5C1FA01EB57FF4F0C94CF1C8091FC
:101F20000B06823009F0DBC18A81809308068E811E
:101F30008093090681E080930A0613E010930B0654
:101F400064E670E088EC90E085DF90930F06809364
:101F50000E0610931006C3C180910B06823009F063
:101F6000BEC12091100630E043E050E0421B530B0D
:101F700084EF91E0489FB001499F700D589F700D0C
:101F800011246C597F4F44E050E0FA01E21BF30B3F
:101F9000AC01E49FC001E59F900DF49F900D1124CA
:101FA00059DF90930F0680930E0699C180910B061E
:101FB0008230A9F48A81809308068E818093090675
:101FC00013E010930B0664E670E088EC90E042DFCB
:101FD00090930F0680930E061093100680C18530F3
:101FE00009F07DC1109212061092110678C1882363
:101FF00009F475C180910B06833009F070C18E81A0
:1020000081116DC184E080930B0688EB9BE0909377
:102010000F0680930E0683E08093100660C19091B6
:102020000B06953009F05BC1882309F458C1CE0135
:1020300004960E942E188A8787E08B838C838BE01E
:102040008D83CE010E949F1B4CC1882309F447C198
:1020500080910B06843009F042C1809113068A30CA
:1020600009F03DC1E0911406F09115069085888530
:10207000981335C191858985981331C1CF0123DE2D
:1020800086E1809313068A85811107C08E8190E0D6
:10209000982F88272F81822B02C080E090E0BAD74A
:1020A00088EB9BE090930F0680930E0683E080936D
:1020B000100615C190910B06953009F010C18823C8
:1020C00009F40DC1FE800F8110E0102F00278885D4
:1020D000082BE984DA844C8147509E01255F3F4FED
:1020E0006F2D802F912F0E94DA198A879F2D90766D
:1020F000903209F0F4C090E09E2927E02B832C83D6
:102100002DE02D831E830F839887D986CE010E94F0
:102110009F1BE7C0882309F4E2C080910B0684501E
:10212000823008F0DCC0809113068C3009F0D7C0F3
:10213000E0911406F0911506918588859813CFC01B
:10214000928589859813CBC0CF01BDDD86E1809350
:10215000130688EB9BE090930F0680930E0683E0B6
:1021600080931006BCC0882309F4B9C080910B0687
:10217000843009F0B4C080911306823109F0AFC0F9
:10218000E0911406F0911506978189859813A7C0F0
:1021900090858A859813A3C0CF0195DD86E1809351
:1021A000130685E080930B0688EB9BE090930F0667
:1021B00080930E0683E08093100691C090910B06E9
:1021C000953009F08CC0882309F489C088EB9BE026
:1021D00090930F0680930E0683E0809310067FC0D5
:1021E00090910B06933068F481E080930A0681E0B9
:1021F00090E090930F0680930E0683E08093100684
:102200006EC0882309F46BC010920B0681E090E049
:1022100090930F0680930E0683E0809310065FC0B4
:1022200080910B06813009F05AC02091100630E0F1
:1022300043E050E0421B530B84EF91E0489FB00114
:10224000499F700D589F700D11246C597F4F44E0C9
:1022500050E0FA01E21BF30BAC01E49FC001E59FE3
:10226000900DF49F900D1124F5DD90930F0680934F
:102270000E0635C080910B06813089F542E050E0B2
:102280006CE076E0CE0107960E94141D892B39F58B
:102290000E949C1CFC0180818F3F19F085E020E0AA
:1022A00002C086E021E09C81981319C0217079F06A
:1022B0000E949C1CFC0190818985981781F09E01E9
:1022C000275F3F4F41E061E080E19FEF58D51092DA
:1022D0000B0681E090E090930F0680930E06CE01EE
:1022E000F2DCDF91CF911F910F91FF90EF90DF9083
:1022F0000895CF93DF931F92CDB7DEB781E0898336
:1023000028E036E0AE014F5F5F4F61E084E19FEF70
:10231000EBD40E949C1CFC0180818F3F21F481E062
:1023200080930B060BC0809108068F3F21F482E05A
:1023300080930B0603C083E080930B06109209067E
:1023400081E080930A0688EC90E090930F068093DA
:102350000E0683E08093100610920D0610920C0674
:1023600080911306863139F08091140690911506FC
:10237000009709F0A8DC86E18093130610921206FC
:10238000109211060F90DF91CF910895EF92FF9276
:102390000F931F93CF93DF931F92CDB7DEB780913A
:1023A0001106909112060097C9F0019790931206BA
:1023B00080931106892B91F486E390E002DCFC0106
:1023C000009761F0128283E08383848382E08583B7
:1023D000809109068683CF010E949F1B80910E0683
:1023E00090910F06009741F0019790930F0680930C
:1023F0000E06892B09F03CC280910B06823009F44D
:10240000F2C038F4882309F481C0813009F488C00F
:102410002FC2843009F4B8C108F43CC1853009F0FA
:1024200027C280911006882351F02FEF280F2093A8
:102430001006909113069C3009F04DC009C081E050
:1024400090E090930F0680930E0610920B0610C238
:1024500083E090E0821B9109BC01660F771F9C010D
:10246000220F331F220F331F220F331F620F731FE0
:1024700024E1AC01249FC001259F900D1124EADCCA
:1024800090930F0680930E06009114061091150686
:10249000D80116968C9180768032C9F486E390E05C
:1024A00090DB8C01009709F4E3C184E196E0DC0144
:1024B000ED91FC9126E3D80101900D922A95E1F768
:1024C000DC01ED91FC91868180688683CCC186E138
:1024D00080931306C8C1963111F00E94101D86E347
:1024E00090E06FDB8C01009709F4C2C1809108066F
:1024F000F801828382E08383848386E1858388EB8D
:102500009BE090930F0680930E06ADC10E941B1BAB
:10251000F0DE8AE090E090930F0680930E06A8C14B
:1025200040911006442359F141504093100650E069
:1025300083E090E0841B950B24EF31E0829FB00193
:10254000839F700D929F700D11246C597F4F84E012
:1025500090E0841B950BAC01429FC001439F900DFE
:10256000529F900D112476DC90930F0680930E06F7
:1025700086E390E026DB8C010097A9F479C1809175
:102580000A06833038F48F5F80930A0683E08093D5
:1025900010066EC188EB9BE090930F0680930E06A9
:1025A00010920B0665C10E942A0A90930D06809333
:1025B0000C060E949C1CDC018C918F3F09F056C1D7
:1025C00081E0F8018187128283E4858380910A0685
:1025D000868380910C0690910D069087878386E014
:1025E0008383848340C140911006442359F14150B4
:1025F0004093100650E083E090E0841B950B24EF9D
:1026000031E0829FB001839F700D929F700D112465
:102610006C597F4F84E090E0841B950BAC01429F86
:10262000C001439F900D529F900D112413DC909395
:102630000F0680930E0686E390E0C3DA8C010097C4
:10264000A9F416C180910A06833038F48F5F809315
:102650000A0683E0809310060BC188EB9BE0909301
:102660000F0680930E0610920B0602C1DC01129633
:102670001C92129783E013968C93139714968C9365
:10268000149781E015968C93159780910A061696FB
:102690008C93E9C080911006882399F08150809333
:1026A000100664E670E084EF91E0D4DB90930F06AF
:1026B00080930E0686E390E084DA8C010097A1F403
:1026C000D7C081E080930A0683E08093100664E619
:1026D00070E084EF91E0BEDB90930F0680930E06CE
:1026E00082E080930B06C4C080910806F8018283C3
:1026F00084E08583868381E0878310868EE18187ED
:102700007801FAE0EF0EF11C87E189839701AE01B1
:102710004F5F5F4F61E080E09FEFE6D289818230BA
:1027200058F586E089839701AE014F5F5F4F61E006
:1027300080EC9FEFD9D28981E80EF11C9FE5D7018B
:102740009C938F5F89830E949C1CFC018081982F41
:1027500092959F709A3010F0995C01C0905DD701FE
:1027600011969C938F708A3010F0895C01C0805D57
:10277000F701828389818E5F8A5FD80113968C93DB
:10278000139714968C936FC080911006882329F1BB
:102790002FEF280F2093100683E090E0821B910911
:1027A000BC01660F771F9C01220F331F220F331FBE
:1027B000220F331F620F731F24E1FC012E9FC00103
:1027C0002F9F900D112446DB90930F0680930E06E9
:1027D000809113068A3051F40BC081E090E0909311
:1027E0000F0680930E0610920B0642C0823189F4C8
:1027F00086E390E0E6D98C010097D1F1E0911406D0
:10280000F091150686E3D80101900D928A95E1F7C3
:102810002AC08C3031F50091140610911506D801AC
:1028200016968C9180768032C1F486E390E0C9D907
:102830008C010097E9F084E196E0DC01ED91FC91D8
:1028400026E3D80101900D922A95E1F7DC01ED9184
:10285000FC9186818068868306C086E1809313069A
:1028600002C00E94101DC8016AD702C00E94101D3C
:102870000F90DF91CF911F910F91FF90EF900895EE
:1028800080910B06089581E090911306963109F02E
:1028900080E00895CF92DF92EF92FF920F931F9303
:1028A000CF93DF931F92CDB7DEB7F82EE62ED42E4E
:1028B000C52E20911306263111F00E94101D86E3CB
:1028C00090E07FD98C01009709F44DC0AADA2CE082
:1028D000F21216C0F801E682C782D08691878287FD
:1028E0008BE289839801255F3F4FAE014F5F5F4FB9
:1028F0006E2D8D2D9C2DD8D48981895F89831EC032
:10290000FAE0FF120DC0F801C682D7829087818756
:10291000B801665F7F4F8E2D1AD38A5F89830EC000
:10292000F2E1FF1209C0F801E6829783808783E213
:10293000818786E0898302C00E94101D809108066D
:10294000F8018283898183838483F0921306F58260
:10295000109315060093140610920F0610920E069F
:1029600083E0809310060F90DF91CF911F910F911C
:10297000FF90EF90DF90CF900895637039F520912C
:102980001C0630911D062817390751F0E8E2F6E0E1
:1029900021E030E0408151814817590781F402C09D
:1029A00020E030E0C901880F991F280F391FC901A5
:1029B000880F991F880F991F885E994F08952F5F80
:1029C0003F4F3C962031310529F728C0613049F549
:1029D000992354F581152FEF920751F0EBE3F1E0C5
:1029E00021E030E0408151814817590781F402C04D
:1029F00020E030E0C901880F991F280F391FC90155
:102A0000880F991F880F991F855D9E4F08952F5F2E
:102A10003F4F3C962830310529F709C080E090E00F
:102A2000089580E090E0089580E090E0089580E0CF
:102A300090E00895FC0120812F3451F128F42134D5
:102A400041F0293441F424C0203519F0233519F41C
:102A50001FC082E00895FC018181873579F028F458
:102A6000823451F0843471F011C0813769F08737B6
:102A700089F0843659F404C081E0089582E0089515
:102A800084E8089584E0089588E8089580E0089532
:102A900080E0089582E80895AF92BF92CF92DF92CE
:102AA000EF92FF920F931F93CF93DF931F92CDB7B7
:102AB000DEB77B015A01FC01C280D380018110E0A6
:102AC000F801E254F109E933F10550F5E653FF4FFF
:102AD00066C781E0FB0180831BC082E0FB0180832D
:102AE00017C084E0FB01808313C041E050E0B601D1
:102AF000CE010196AFD79981F7018081981708F42C
:102B0000892FF7018083882369F0FFEFCF1ADF0A4E
:102B1000F701408150E0B601C5019CD780E003C0B9
:102B200083E001C080E00F90DF91CF911F910F9162
:102B3000FF90EF90DF90CF90BF90AF900895CF922D
:102B4000DF92EF92FF920F931F93CF93DF931F9229
:102B5000CDB7DEB769836A01FC01E280F3800181B1
:102B600010E0F801E254F109E933F105F8F4ED5F02
:102B7000FE4F15C781E0898312C082E089830FC0B0
:102B800084E089830CC041E050E0B701CE0101969A
:102B900071D78981882361F0FFEFEF1AFF0A49811D
:102BA00050E0B701C60166D780E003C083E001C0F2
:102BB00080E00F90DF91CF911F910F91FF90EF90E8
:102BC000DF90CF900895BBDF0E94B00280E00895AF
:102BD000AF92BF92CF92DF92EF92FF920F931F932B
:102BE000CF93DF9300D000D0CDB7DEB78031D8F5DA
:102BF00090E0FC01EE0FFF1FE80FF91FEE0FFF1F23
:102C0000EE0FFF1FE85EF94F2FEF3FEF3583248370
:102C10000CE110E07F0144E050E0B801CE010196E4
:102C200019D7CE2CDF2C44E050E0B701CE0101963D
:102C3000FBD6892B79F48FEF89838A832FEF3FEFBF
:102C40003C832B8344E050E0602F712FCE0101962E
:102C500011D705C00C5F1F4F0C351105E1F68C2D07
:102C60009D2D0E9406020F900F900F900F90DF9104
:102C7000CF911F910F91FF90EF90DF90CF90BF9079
:102C8000AF90089580911C0690911D06019659F011
:102C9000E8E2F6E021E030E0C901408151814F3F98
:102CA0005F4FC9F402C080E090E09C01220F331F07
:102CB000F901E80FF91FEE0FFF1FEE0FFF1FE85E8F
:102CC000F94F178216821186108613861286158296
:102CD0001482CF0108952F5F3F4F3C96203131057C
:102CE000D9F680E090E008950F931F93CF93DF9380
:102CF000EA01890142DE009719F4188282E00FC0D0
:102D0000DC011696ED91FC911797309719F4188213
:102D100083E005C0A801BE01099581111882DF91E9
:102D2000CF911F910F9108950F931F93CF93DF932E
:102D3000EB019A01FC01628173816115710579F4DF
:102D400008810A3010F410E002C00AE010E0A80187
:102D500061E271E0C90175D6088380E00BC0613083
:102D6000710519F08FEF9FEF02C080E19FEFAE0178
:102D700061E0BADFDF91CF911F910F9108951F930A
:102D8000CF93DF93142FE901F8DD009759F0DC01B0
:102D90001896ED91FC911997309731F0AE01612FA3
:102DA000099503C082E001C083E0DF91CF911F91BC
:102DB0000895CF92DF92EF92FF920F931F93CF93DC
:102DC000DF9300D000D000D0CDB7DEB781E089839B
:102DD0001A829E012E5F3F4FAE014F5F5F4F61E051
:102DE00080E09FEF81DF8A818F3F39F0ECE1F6E0F0
:102DF0002CED36E08FEF9FEF3FC01FEF1E839E014B
:102E00002A5F3F4F41E061E080E19FEFB8DF1D8323
:102E10009E012B5F3F4F41E061E084E19FEFAFDF18
:102E200084ED9DE29C838B839E012D5F3F4F42E0AA
:102E300061E081E19FEFA3DF84E28A839E012E5F40
:102E40003F4F41E061E082E19FEF99DF80E590E054
:102E50009C838B839E012D5F3F4F42E061E088E0C1
:102E60009FEF8DDF1A829E012E5F3F4F40E061E0B1
:102E700080E09FEF84DFBACF918380833C96E21796
:102E8000F307D1F780E190E09C838B8310921706C3
:102E9000109216060E94C7011C821B8260E070E03F
:102EA00000E010E007C00F5F1F4F3C960031110596
:102EB00061F43EC0F801EE0FFF1FE00FF11FEE0FAF
:102EC000FF1FEE0FFF1FE45EF94F80819181019695
:102ED00051F7C801880F991F800F911F880F991F04
:102EE000880F991FFC01E85EF94F7F01660F771F7D
:102EF000660F771F645E7F4F44E050E0CF01AAD594
:102F0000F701808181508E3F50F4C7010E94E30198
:102F1000811105C00F5F1F4FF701158214826B816D
:102F20007C816F5F7F4F7C836B836031710510F212
:102F300026960FB6F894DEBF0FBECDBFDF91CF91BE
:102F40001F910F91FF90EF90DF90CF900895FF9227
:102F50000F931F93CF93DF9390E09C01220F331FB9
:102F6000D901A80FB91FAA0FBB1FAA0FBB1FA85ECC
:102F7000B94F4C91FB014083329611964C91DB0185
:102F800011964C93820F931FDC01AA0FBB1FAA0F4F
:102F9000BB1FA85EB94F12964D915C911397D3E079
:102FA00010E020E137E2F12C01E042175307E8F08E
:102FB000CA01B901C4D4C62F482F592FADECBCECBF
:102FC000F4D49C0136952795369527953695279507
:102FD000C11102C0112329F0C05DC083DF5F3196AB
:102FE000102F2A30310508F70CC0ADECBCECDDD455
:102FF0009C01369527953695279536952795CF2DA3
:10300000E9CF405D40838D2FDF91CF911F910F91CC
:10301000FF9008958F3F2FEF920799F020911606A9
:1030200030911706F901EE0FFF1F2E0F3F1FF90118
:10303000EE0FFF1FEE0FFF1FE85EF94F95838483AD
:1030400003C080911606C4DD809116069091170684
:103050000196909317068093160608958F929F927B
:10306000AF92BF92CF92DF92EF92FF920F931F9396
:10307000CF93DF93CDB7DEB728970FB6F894DEBFB6
:103080000FBECDBF8C01DC0116968C9116978983FB
:1030900017968C9117978A836C91693020F1F8010B
:1030A000399618964C9180ED840F8A30F8F420E020
:1030B00030E058E005C0419180ED840F8A30C0F4C3
:1030C000C901880F991F220F331F220F331F220FB0
:1030D000331F280F391F240F311D205331095F5F23
:1030E0005613E9CF05C020E030E002C020E030E018
:1030F0003C832B83CE0101960E94CD01823009F4DE
:10310000B7C0F801828190E0982F882723818C0135
:10311000022B0F2EF8E1CF2EF6E0DF2EF02DA12CA2
:10312000B12CEE24EA94FE2CD60114968D909C903E
:103130001597BFEF8B169B0629F4EFEFEE16FE06F0
:1031400071F40CC044E050E0B601CE0101966CD49D
:10315000892B81F00815190511F48CC07501FFEF5A
:10316000AF1ABF0A2CE0C20ED11C80E1A816B10430
:10317000D9F601C07501AFEFEA16FA0609F47CC072
:10318000F701EE0FFF1FEE0DFF1DEE0FFF1FEE0FFD
:10319000FF1FE85EF94F84819581019609F050C0C8
:1031A0000F3FEFEF1E0709F469C0C701880F991F91
:1031B0008E0D9F1D880F991F880F991F885E994F4C
:1031C00049815A816B817C81DC014D935D936D93C4
:1031D0007C9313970E94E301811152C0F701EE0F17
:1031E000FF1FEE0DFF1DEE0FFF1FEE0FFF1FE85E2E
:1031F000F94F158304830CE110E044E050E0B8017E
:10320000CE01059627D444E050E0BE016B5F7F4FAE
:10321000CE01019609D4892B89F08D8181508E3F92
:1032200040F044E050E0602F712FCE01019622D48F
:1032300005C00C5F1F4F0C351105F9F680E021C069
:103240000F3FBFEF1B0721F48E2DC2DC80E019C0B9
:10325000F701EE0FFF1FEE0EFF1EF701EE0FFF1F2F
:10326000EE0FFF1FE85EF94F1583048380E009C06D
:1032700083E007C082E005C081E003C082E001C0B6
:1032800082E028960FB6F894DEBF0FBECDBFDF9167
:10329000CF911F910F91FF90EF90DF90CF90BF9053
:1032A000AF909F908F900895EF92FF920F931F938E
:1032B000CF93DF937A01E90160DB8C01009721F461
:1032C000D7011C9282E06FC0DC011696ED91FC9153
:1032D0001797309721F4F701108283E064C0AE01A4
:1032E000B701099581115BC0C801A4DB882324F5CF
:1032F0008F778230E8F0282F30E0FE01E20FF31FD5
:1033000031979081911108C02C0F3D1FF901329720
:103310009081992354F40CC09F3F51F42C0F3D1F12
:10332000F9013297908199231CF48150813019F76B
:10333000D7018C9380E037C08823A1F1282F30E09B
:10334000FE01E20FF31F31979081992364F08230E0
:1033500010F1911120C02C0F3D1FF901329790817F
:10336000992334F418C0C20FD31F18828F5F13C083
:103370008150813081F0282F30E0FE01E20FF31FF1
:1033800031979081911107C02C0F3D1FF9013297A1
:10339000908199236CF7F701808380E004C0D70106
:1033A0001C9201C080E0DF91CF911F910F91FF909F
:1033B000EF900895FF920F931F93CF93DF93F42E16
:1033C000E901DBDA8C01009759F1DC0118968D9147
:1033D0009C911997892B31F1C8012CDB682F6F77ED
:1033E000F61690F4FE01EF0DF11D31978081880FE4
:1033F000880B91E09F0DFE01EF0DF11D8083961764
:1034000011F0F92EF6CFF62E611101C06F2DD80103
:103410001896ED91FC911997AE01C801099503C06A
:1034200082E001C083E0DF91CF911F910F91FF9067
:103430000895CF93DF930E941A0222DA853009F0B3
:1034400066C08091160690911706409708F452C006
:1034500010921706109216064DC0F901EE0FFF1FCD
:10346000E20FF31FEE0FFF1FEE0FFF1FE85EF94F95
:10347000848195810196A9F1F901EE0FFF1FE20FFA
:10348000F31FEE0FFF1FEE0FFF1FE85EF94F0284E0
:10349000F385E02D309729F1C901880F991F280F76
:1034A000391FC901880F991F880F991F60E0885E36
:1034B000994F09958823A9F08091160690911706D7
:1034C000FC01EE0FFF1F8E0F9F1FFC01EE0FFF1F71
:1034D000EE0FFF1FE85EF94F4481558160E28CE0FA
:1034E000D9D98091160690911706019690931706E8
:1034F00080931606C8D9882309F47CC0209116064B
:10350000309117062031310508F4A7CF73C08430FD
:1035100009F06CC0809116069091170680319105D4
:1035200070F5FC01EE0FFF1FE80FF91FEE0FFF1FF4
:10353000EE0FFF1FE85EF94F248135812F3F3F4F8B
:10354000C1F0A1D9882309F455C060911606709185
:103550001706FB01EE0FFF1FE60FF71FEE0FFF1F11
:10356000EE0FFF1FE85EF94F448155818AE092D942
:1035700041C0019690931706809316063BC08F3F7B
:103580002FEF920751F1803C9F4F30F480EC9FEF7A
:10359000909317068093160676D9882359F1C09127
:1035A0001606D091170661E0CE01E7D9892B71F09C
:1035B000AE0161E38CE06ED98091160690911706FA
:1035C0000196909317068093160614C08FEF9FEF15
:1035D00090931706809316060DC055D9882351F095
:1035E00040E050E060E282E155D904C01092170635
:1035F00010921606DF91CF9108952A981C99FECF5C
:103600000E94920A80E00E94920A2A9A0895CF931B
:10361000C62F2A981C99FECF0E94920A8C2F0E94D6
:10362000920A2A9ACF9108952A981C99FECF0E9457
:10363000920A2A9A0895EF92FF920F931F93CF93C5
:10364000DF9300D000D0CDB7DEB702C00E94630E7A
:103650008AED96E00E94F00E0097C1F781E08C831E
:1036600020EE36E0AE014C5F5F4F61E080E19FEFFE
:103670003BDB9E012F5F3F4FAE014C5F5F4F61E030
:1036800082E19FEF31DB82E08C839E012E5F3F4F12
:10369000AE014C5F5F4F61E081E19FEF25DB0E944F
:1036A000980A8AE18A95F1F700C02A98A5E3AA95BD
:1036B000F1F700002A9AB5EDBA95F1F700002A98C3
:1036C0001C99FECF80E30E94920A1C99FECF2A9A91
:1036D00080EF93DF811104C081EF8FDF833008F426
:1036E0009FD10CE811E00F2EF2ECEF2EF1E0FF2E4F
:1036F000F02DF8013197D8016C91808188DF0E5F41
:103700001F4F0E151F05A9F76091E00689E07FDFC6
:103710006B8184E07CDF6A8185E079DF69818AE002
:1037200076DF60E58EE373DF0F900F900F900F90C0
:10373000DF91CF911F910F91FF90EF900895CF935C
:10374000DF93EC01BC018AED96E00E94BD0E811171
:1037500003C0CE010E94630EDF91CF910895EF92D6
:10376000FF920F931F93CF93DF9385EF46DF813056
:1037700009F06DC088EF41DF88230CF05FC0C0E125
:103780001FEF8BEF3ADFD82FC150811721F0CC23E8
:1037900071F0182FF6CFCC2351F017501C3238F4AB
:1037A00086E390E00E94E10D8C01009739F48AE3F2
:1037B0003BDF84E339DF80E090E0B7C00F2EFBEF02
:1037C000EF2EF02DED0EFC01E3822A981C99FECF1E
:1037D0008FEF0E94920A80E00E94920A80E00E948D
:1037E000920A80E00E94920AF8018283EE2051F052
:1037F000E8012496F12C80E00E94920A8993F394C8
:10380000EF10F9CF80E00E94920A8093D90680E001
:103810000E94920A2A9A882334F0C8010E94630EFB
:1038200000E010E004C081E090E00E94810D8AE396
:10383000FBDE84E3F9DE802F912F77C08BE3F4DE8B
:103840008AE3F2DE84E3F0DE80E090E06EC08D304B
:1038500009F063C08091DF06882309F461C080917C
:10386000D806882331F081508093D80680E090E01C
:103870005CC088EFC2DE84FD13C080910401882300
:1038800079F0815080930401C091E006C6950E94B2
:103890002A0A8F77C80FC093D80680E090E045C011
:1038A0001092D80680E4809304018AED96E00E948D
:1038B000F00E7C010097B9F181E090E00E94810D4B
:1038C000F70103812A981C99FECF8FE70E94920A84
:1038D00082E0800F0E94920AF70182810E94920A80
:1038E0008091E0060E94920A002371F0E70124967D
:1038F000015010E00B5F1F4F0E0D1F1D89910E949C
:10390000920AC017D107D1F72A9AC7010E94630E05
:1039100085E38ADE80E090E008C080E090E005C0AA
:1039200080E090E002C080E090E0DF91CF911F91B5
:103930000F91FF90EF90089580EE96E00895AA1BF6
:10394000BB1B51E107C0AA1FBB1FA617B70710F08A
:10395000A61BB70B881F991F5A95A9F780959095BC
:10396000BC01CD010895052E97FB16F400940FD0ED
:1039700057FD05D033D007FC02D046F408C050955F
:103980004095309521953F4F4F4F5F4F089590954B
:103990008095709561957F4F8F4F9F4F0895EE0FE3
:1039A000FF1F0590F491E02D0994A29FB001B39FF1
:1039B000C001A39F700D811D1124911DB29F700D38
:1039C000811D1124911D0895F0DFA59F900DB49FD6
:1039D000900DA49F800D911D11240895A1E21A2E2F
:1039E000AA1BBB1BFD010DC0AA1FBB1FEE1FFF1FA3
:1039F000A217B307E407F50720F0A21BB30BE40BF3
:103A0000F50B661F771F881F991F1A9469F7609539
:103A10007095809590959B01AC01BD01CF010895F3
:103A200081E090E0F8943DC0FB01DC0104C08D9181
:103A30000190801921F441505040C8F7881B990B20
:103A40000895FB01DC0102C001900D9241505040ED
:103A5000D8F70895DC01CB01FC01F999FECF06C02F
:103A6000F2BDE1BDF89A319600B40D92415050403C
:103A7000B8F70895DC01CB0102C02D9105D041506B
:103A80005040D8F70895262FF999FECF1FBA92BD5E
:103A900081BD20BD0FB6F894FA9AF99A0FBE01962F
:063AA0000895F894FFCF29
:103AA6005EA1FFFF401D1E0100C00028002B009FE5
:103AB60001CF00670033001900C0000000000000BD
:103AC600004131436E31322E3330314573020000EE
:103AD600FF4C159F15000045571A0008FF4C15E3CB
:103AE6001500004542720010FF4C159F1500004559
:103AF60042730014FF4C159F1500004557740011C2
:103B0600FF4C159F1500004542760012FF4C159F8D
:103B160015000046730000C0FF9416000000004622
:103B2600610100C1FF941600000000022E002E0362
:103B360047063D070608050B080D100EA70F621075
:103B4600CA11831293130014001533181819161B83
:103B56004320FB23E9242A2500261F2C812D352E00
:023B6600090054
:00000001FF
